{
  "contractName": "AbstractHouse",
  "abi": [
    {
      "constant": false,
      "inputs": [
        {
          "name": "_address",
          "type": "address"
        }
      ],
      "name": "authorized",
      "outputs": [
        {
          "name": "",
          "type": "bool"
        }
      ],
      "payable": false,
      "stateMutability": "nonpayable",
      "type": "function"
    },
    {
      "constant": false,
      "inputs": [],
      "name": "currentSession",
      "outputs": [
        {
          "name": "",
          "type": "uint256"
        }
      ],
      "payable": false,
      "stateMutability": "nonpayable",
      "type": "function"
    },
    {
      "constant": false,
      "inputs": [
        {
          "name": "winner",
          "type": "address"
        },
        {
          "name": "amount",
          "type": "uint256"
        }
      ],
      "name": "transferProfits",
      "outputs": [
        {
          "name": "",
          "type": "bool"
        }
      ],
      "payable": false,
      "stateMutability": "nonpayable",
      "type": "function"
    }
  ],
  "bytecode": "0x6060604052341561000f57600080fd5b6101708061001e6000396000f300606060405260043610610057576000357c0100000000000000000000000000000000000000000000000000000000900463ffffffff168063b91816111461005c578063d4166763146100ad578063fa0985ad146100d6575b600080fd5b341561006757600080fd5b610093600480803573ffffffffffffffffffffffffffffffffffffffff16906020019091905050610130565b604051808215151515815260200191505060405180910390f35b34156100b857600080fd5b6100c0610137565b6040518082815260200191505060405180910390f35b34156100e157600080fd5b610116600480803573ffffffffffffffffffffffffffffffffffffffff1690602001909190803590602001909190505061013c565b604051808215151515815260200191505060405180910390f35b6000919050565b600090565b6000929150505600a165627a7a72305820480f37a4ce99d3f3faeb3fe2804f186ddc0a7697d82d3830a545c78dcad3cb740029",
  "source": "pragma solidity ^0.4.8;\r\n\r\n\r\ncontract AbstractHouse {\r\n\r\n    function authorized(address _address) returns (bool) {}\r\n    function transferProfits(address winner, uint amount) returns (bool) {}\r\n    function currentSession() returns (uint) {}\r\n\r\n}",
  "sourcePath": "C:\\truffle\\decent-bet\\contracts\\House\\AbstractHouse.sol",
  "compiler": {
    "name": "solc",
    "version": "0.4.18+commit.9cf6e910.Emscripten.clang"
  },
  "schemaVersion": "1.0.1",
  "updatedAt": "2017-12-08T17:43:10.766Z"
}