{
  "contractName": "AbstractDecentBetToken",
  "abi": [
    {
      "constant": false,
      "inputs": [
        {
          "name": "spender",
          "type": "address"
        },
        {
          "name": "value",
          "type": "uint256"
        }
      ],
      "name": "approve",
      "outputs": [
        {
          "name": "",
          "type": "bool"
        }
      ],
      "payable": false,
      "stateMutability": "nonpayable",
      "type": "function"
    },
    {
      "constant": false,
      "inputs": [
        {
          "name": "from",
          "type": "address"
        },
        {
          "name": "to",
          "type": "address"
        },
        {
          "name": "value",
          "type": "uint256"
        }
      ],
      "name": "transferFrom",
      "outputs": [
        {
          "name": "",
          "type": "bool"
        }
      ],
      "payable": false,
      "stateMutability": "nonpayable",
      "type": "function"
    },
    {
      "constant": false,
      "inputs": [
        {
          "name": "who",
          "type": "address"
        }
      ],
      "name": "balanceOf",
      "outputs": [
        {
          "name": "",
          "type": "uint256"
        }
      ],
      "payable": false,
      "stateMutability": "nonpayable",
      "type": "function"
    },
    {
      "constant": false,
      "inputs": [
        {
          "name": "to",
          "type": "address"
        },
        {
          "name": "value",
          "type": "uint256"
        }
      ],
      "name": "transfer",
      "outputs": [
        {
          "name": "",
          "type": "bool"
        }
      ],
      "payable": false,
      "stateMutability": "nonpayable",
      "type": "function"
    },
    {
      "constant": false,
      "inputs": [
        {
          "name": "owner",
          "type": "address"
        },
        {
          "name": "spender",
          "type": "address"
        }
      ],
      "name": "allowance",
      "outputs": [
        {
          "name": "",
          "type": "uint256"
        }
      ],
      "payable": false,
      "stateMutability": "nonpayable",
      "type": "function"
    }
  ],
  "bytecode": "0x6060604052341561000f57600080fd5b6102ac8061001e6000396000f30060606040526004361061006d576000357c0100000000000000000000000000000000000000000000000000000000900463ffffffff168063095ea7b31461007257806323b872dd146100cc57806370a0823114610145578063a9059cbb14610192578063dd62ed3e146101ec575b600080fd5b341561007d57600080fd5b6100b2600480803573ffffffffffffffffffffffffffffffffffffffff16906020019091908035906020019091905050610258565b604051808215151515815260200191505060405180910390f35b34156100d757600080fd5b61012b600480803573ffffffffffffffffffffffffffffffffffffffff1690602001909190803573ffffffffffffffffffffffffffffffffffffffff16906020019091908035906020019091905050610260565b604051808215151515815260200191505060405180910390f35b341561015057600080fd5b61017c600480803573ffffffffffffffffffffffffffffffffffffffff16906020019091905050610269565b6040518082815260200191505060405180910390f35b341561019d57600080fd5b6101d2600480803573ffffffffffffffffffffffffffffffffffffffff16906020019091908035906020019091905050610270565b604051808215151515815260200191505060405180910390f35b34156101f757600080fd5b610242600480803573ffffffffffffffffffffffffffffffffffffffff1690602001909190803573ffffffffffffffffffffffffffffffffffffffff16906020019091905050610278565b6040518082815260200191505060405180910390f35b600092915050565b60009392505050565b6000919050565b600092915050565b6000929150505600a165627a7a72305820e5ae032b96254c9193e778d43ed1c8530cc7306cd1ebb66faaea02d9ff297fb70029",
  "source": "pragma solidity ^0.4.8;\r\n\r\n\r\ncontract AbstractDecentBetToken {\r\n\r\n    function balanceOf(address who) returns (uint) {}\r\n\r\n    function transfer(address to, uint256 value) returns (bool) {}\r\n\r\n    function transferFrom(address from, address to, uint256 value) returns (bool) {}\r\n\r\n    function approve(address spender, uint256 value) returns (bool) {}\r\n\r\n    function allowance(address owner, address spender) returns (uint) {}\r\n\r\n}\r\n",
  "sourcePath": "C:\\truffle\\decent-bet\\contracts\\Token\\AbstractDecentBetToken.sol",
  "compiler": {
    "name": "solc",
    "version": "0.4.18+commit.9cf6e910.Emscripten.clang"
  },
  "schemaVersion": "1.0.1",
  "updatedAt": "2017-12-08T17:43:11.070Z"
}