{
  "contractName": "ECVerify",
  "abi": [
    {
      "constant": false,
      "inputs": [
        {
          "name": "hash",
          "type": "bytes32"
        },
        {
          "name": "sig",
          "type": "bytes"
        },
        {
          "name": "signer",
          "type": "address"
        }
      ],
      "name": "ecverify",
      "outputs": [
        {
          "name": "",
          "type": "bool"
        }
      ],
      "payable": false,
      "stateMutability": "nonpayable",
      "type": "function"
    },
    {
      "constant": false,
      "inputs": [
        {
          "name": "hash",
          "type": "bytes32"
        },
        {
          "name": "sig",
          "type": "bytes"
        }
      ],
      "name": "ecrecovery",
      "outputs": [
        {
          "name": "",
          "type": "bool"
        },
        {
          "name": "",
          "type": "address"
        }
      ],
      "payable": false,
      "stateMutability": "nonpayable",
      "type": "function"
    }
  ],
  "bytecode": "0x6060604052341561000f57600080fd5b6102f68061001e6000396000f30060606040526004361061004c576000357c0100000000000000000000000000000000000000000000000000000000900463ffffffff16806339cdde321461005157806377d32e94146100e7575b600080fd5b6100cd60048080356000191690602001909190803590602001908201803590602001908080601f0160208091040260200160405190810160405280939291908181526020018383808284378201915050505050509190803573ffffffffffffffffffffffffffffffffffffffff16906020019091905050610191565b604051808215151515815260200191505060405180910390f35b61014460048080356000191690602001909190803590602001908201803590602001908080601f016020809104026020016040519081016040528093929190818152602001838380828437820191505050505050919050506101f2565b60405180831515151581526020018273ffffffffffffffffffffffffffffffffffffffff1673ffffffffffffffffffffffffffffffffffffffff1681526020019250505060405180910390f35b60008060006101a086866101f2565b8092508193505050600115158215151480156101e757508373ffffffffffffffffffffffffffffffffffffffff168173ffffffffffffffffffffffffffffffffffffffff16145b925050509392505050565b600080600080600060418651141515610214576000808090509450945061027c565b6020860151925060408601519150606086015160001a9050601b8160ff16101561023f57601b810190505b601b8160ff16141580156102575750601c8160ff1614155b1561026b576000808090509450945061027c565b61027787828585610286565b945094505b5050509250929050565b60008060008060405188815287602082015286604082015285606082015260208160808360006001610bb8f1925080519150508181935093505050945094925050505600a165627a7a723058205127822b2ab4dc846e3fc865a13de3c5851a631361a7c9328a8820cf2695941a0029",
  "source": "pragma solidity ^0.4.0;\r\n\r\nlibrary ECVerify {\r\n\r\n    // Duplicate Solidity's ecrecover, but catching the CALL return value\r\n    function safer_ecrecover(bytes32 hash, uint8 v, bytes32 r, bytes32 s) internal returns (bool, address) {\r\n        // We do our own memory management here. Solidity uses memory offset\r\n        // 0x40 to store the current end of memory. We write past it (as\r\n        // writes are memory extensions), but don't update the offset so\r\n        // Solidity will reuse it. The memory used here is only needed for\r\n        // this context.\r\n\r\n        // FIXME: inline assembly can't access return values\r\n        bool ret;\r\n        address addr;\r\n\r\n        assembly {\r\n            let size := mload(0x40)\r\n            mstore(size, hash)\r\n            mstore(add(size, 32), v)\r\n            mstore(add(size, 64), r)\r\n            mstore(add(size, 96), s)\r\n\r\n            // NOTE: we can reuse the request memory because we deal with\r\n            //       the return code\r\n            ret := call(3000, 1, 0, size, 128, size, 32)\r\n            addr := mload(size)\r\n        }\r\n\r\n        return (ret, addr);\r\n    }\r\n\r\n    function ecrecovery(bytes32 hash, bytes sig) returns (bool, address) {\r\n        bytes32 r;\r\n        bytes32 s;\r\n        uint8 v;\r\n\r\n        if (sig.length != 65)\r\n            return (false, 0);\r\n\r\n        // The signature format is a compact form of:\r\n        //   {bytes32 r}{bytes32 s}{uint8 v}\r\n        // Compact means, uint8 is not padded to 32 bytes.\r\n        assembly {\r\n            r := mload(add(sig, 32))\r\n            s := mload(add(sig, 64))\r\n\r\n            // Here we are loading the last 32 bytes. We exploit the fact that\r\n            // 'mload' will pad with zeroes if we overread.\r\n            // There is no 'mload8' to do this, but that would be nicer.\r\n            v := byte(0, mload(add(sig, 96)))\r\n\r\n            // Alternative solution:\r\n            // 'byte' is not working due to the Solidity parser, so lets\r\n            // use the second best option, 'and'\r\n            // v := and(mload(add(sig, 65)), 255)\r\n        }\r\n\r\n        // albeit non-transactional signatures are not specified by the YP, one would expect it\r\n        // to match the YP range of [27, 28]\r\n        //\r\n        // geth uses [0, 1] and some clients have followed. This might change, see:\r\n        //  https://github.com/ethereum/go-ethereum/issues/2053\r\n        if (v < 27)\r\n            v += 27;\r\n\r\n        if (v != 27 && v != 28)\r\n            return (false, 0);\r\n\r\n        return safer_ecrecover(hash, v, r, s);\r\n    }\r\n\r\n    function ecverify(bytes32 hash, bytes sig, address signer) returns (bool) {\r\n        bool ret;\r\n        address addr;\r\n        (ret, addr) = ecrecovery(hash, sig);\r\n        return ret == true && addr == signer;\r\n    }\r\n\r\n}",
  "sourcePath": "C:\\truffle\\decent-bet\\contracts\\Libraries\\ECVerify.sol",
  "compiler": {
    "name": "solc",
    "version": "0.4.18+commit.9cf6e910.Emscripten.clang"
  },
  "schemaVersion": "1.0.1",
  "updatedAt": "2017-12-08T17:44:15.722Z"
}