{
  "contractName": "House",
  "abi": [
    {
      "constant": false,
      "inputs": [
        {
          "name": "percentage",
          "type": "uint256"
        },
        {
          "name": "houseOffering",
          "type": "address"
        }
      ],
      "name": "allocateTokensForHouseOffering",
      "outputs": [],
      "payable": false,
      "stateMutability": "nonpayable",
      "type": "function"
    },
    {
      "constant": false,
      "inputs": [
        {
          "name": "session",
          "type": "uint256"
        }
      ],
      "name": "withdrawLotteryWinnings",
      "outputs": [],
      "payable": false,
      "stateMutability": "nonpayable",
      "type": "function"
    },
    {
      "constant": true,
      "inputs": [
        {
          "name": "",
          "type": "uint256"
        },
        {
          "name": "",
          "type": "uint256"
        }
      ],
      "name": "lotteryTicketHolders",
      "outputs": [
        {
          "name": "",
          "type": "address"
        }
      ],
      "payable": false,
      "stateMutability": "view",
      "type": "function"
    },
    {
      "constant": true,
      "inputs": [
        {
          "name": "",
          "type": "uint256"
        }
      ],
      "name": "lotteries",
      "outputs": [
        {
          "name": "ticketCount",
          "type": "uint256"
        },
        {
          "name": "winningTicket",
          "type": "uint256"
        },
        {
          "name": "payout",
          "type": "uint256"
        },
        {
          "name": "claimed",
          "type": "bool"
        },
        {
          "name": "finalized",
          "type": "bool"
        }
      ],
      "payable": false,
      "stateMutability": "view",
      "type": "function"
    },
    {
      "constant": true,
      "inputs": [],
      "name": "timeController",
      "outputs": [
        {
          "name": "",
          "type": "address"
        }
      ],
      "payable": false,
      "stateMutability": "view",
      "type": "function"
    },
    {
      "constant": false,
      "inputs": [
        {
          "name": "_address",
          "type": "address"
        }
      ],
      "name": "addToAuthorizedAddresses",
      "outputs": [],
      "payable": false,
      "stateMutability": "nonpayable",
      "type": "function"
    },
    {
      "constant": true,
      "inputs": [],
      "name": "isActive",
      "outputs": [
        {
          "name": "",
          "type": "bool"
        }
      ],
      "payable": false,
      "stateMutability": "view",
      "type": "function"
    },
    {
      "constant": false,
      "inputs": [
        {
          "name": "amount",
          "type": "uint256"
        }
      ],
      "name": "rollOverCredits",
      "outputs": [],
      "payable": false,
      "stateMutability": "nonpayable",
      "type": "function"
    },
    {
      "constant": true,
      "inputs": [],
      "name": "isMock",
      "outputs": [
        {
          "name": "",
          "type": "bool"
        }
      ],
      "payable": false,
      "stateMutability": "view",
      "type": "function"
    },
    {
      "constant": false,
      "inputs": [
        {
          "name": "time",
          "type": "uint256"
        }
      ],
      "name": "setTime",
      "outputs": [],
      "payable": false,
      "stateMutability": "nonpayable",
      "type": "function"
    },
    {
      "constant": true,
      "inputs": [
        {
          "name": "",
          "type": "uint256"
        }
      ],
      "name": "offeringAddresses",
      "outputs": [
        {
          "name": "",
          "type": "address"
        }
      ],
      "payable": false,
      "stateMutability": "view",
      "type": "function"
    },
    {
      "constant": true,
      "inputs": [
        {
          "name": "",
          "type": "uint256"
        }
      ],
      "name": "houseFunds",
      "outputs": [
        {
          "name": "totalFunds",
          "type": "uint256"
        },
        {
          "name": "totalPurchasedUserCredits",
          "type": "uint256"
        },
        {
          "name": "totalUserCredits",
          "type": "uint256"
        },
        {
          "name": "totalHousePayouts",
          "type": "uint256"
        },
        {
          "name": "totalWithdrawn",
          "type": "uint256"
        },
        {
          "name": "profit",
          "type": "uint256"
        }
      ],
      "payable": false,
      "stateMutability": "view",
      "type": "function"
    },
    {
      "constant": true,
      "inputs": [],
      "name": "founder",
      "outputs": [
        {
          "name": "",
          "type": "address"
        }
      ],
      "payable": false,
      "stateMutability": "view",
      "type": "function"
    },
    {
      "constant": true,
      "inputs": [
        {
          "name": "session",
          "type": "uint256"
        },
        {
          "name": "index",
          "type": "uint256"
        }
      ],
      "name": "getUserForSession",
      "outputs": [
        {
          "name": "_address",
          "type": "address"
        }
      ],
      "payable": false,
      "stateMutability": "view",
      "type": "function"
    },
    {
      "constant": false,
      "inputs": [
        {
          "name": "session",
          "type": "uint256"
        },
        {
          "name": "amount",
          "type": "uint256"
        }
      ],
      "name": "liquidateCredits",
      "outputs": [],
      "payable": false,
      "stateMutability": "nonpayable",
      "type": "function"
    },
    {
      "constant": true,
      "inputs": [],
      "name": "getTime",
      "outputs": [
        {
          "name": "",
          "type": "uint256"
        }
      ],
      "payable": false,
      "stateMutability": "view",
      "type": "function"
    },
    {
      "constant": false,
      "inputs": [
        {
          "name": "_address",
          "type": "address"
        }
      ],
      "name": "removeFromAuthorizedAddresses",
      "outputs": [],
      "payable": false,
      "stateMutability": "nonpayable",
      "type": "function"
    },
    {
      "constant": false,
      "inputs": [],
      "name": "beginNextSession",
      "outputs": [],
      "payable": false,
      "stateMutability": "nonpayable",
      "type": "function"
    },
    {
      "constant": true,
      "inputs": [],
      "name": "houseLotteryAddress",
      "outputs": [
        {
          "name": "",
          "type": "address"
        }
      ],
      "payable": false,
      "stateMutability": "view",
      "type": "function"
    },
    {
      "constant": false,
      "inputs": [
        {
          "name": "houseOfferingAddress",
          "type": "address"
        }
      ],
      "name": "addHouseOffering",
      "outputs": [],
      "payable": false,
      "stateMutability": "nonpayable",
      "type": "function"
    },
    {
      "constant": true,
      "inputs": [
        {
          "name": "",
          "type": "uint256"
        }
      ],
      "name": "sessions",
      "outputs": [
        {
          "name": "startTime",
          "type": "uint256"
        },
        {
          "name": "endTime",
          "type": "uint256"
        },
        {
          "name": "active",
          "type": "bool"
        },
        {
          "name": "withdrawnOfferings",
          "type": "uint256"
        },
        {
          "name": "totalTokensAllocated",
          "type": "uint256"
        },
        {
          "name": "depositedAllocations",
          "type": "uint256"
        }
      ],
      "payable": false,
      "stateMutability": "view",
      "type": "function"
    },
    {
      "constant": true,
      "inputs": [
        {
          "name": "session",
          "type": "uint256"
        },
        {
          "name": "_address",
          "type": "address"
        }
      ],
      "name": "getUserCreditsForSession",
      "outputs": [
        {
          "name": "amount",
          "type": "uint256"
        },
        {
          "name": "liquidated",
          "type": "uint256"
        },
        {
          "name": "rolledOver",
          "type": "uint256"
        },
        {
          "name": "exists",
          "type": "bool"
        }
      ],
      "payable": false,
      "stateMutability": "view",
      "type": "function"
    },
    {
      "constant": true,
      "inputs": [
        {
          "name": "session",
          "type": "uint256"
        },
        {
          "name": "_address",
          "type": "address"
        }
      ],
      "name": "getOfferingTokenAllocations",
      "outputs": [
        {
          "name": "",
          "type": "uint256"
        },
        {
          "name": "",
          "type": "bool"
        }
      ],
      "payable": false,
      "stateMutability": "view",
      "type": "function"
    },
    {
      "constant": false,
      "inputs": [
        {
          "name": "houseOffering",
          "type": "address"
        }
      ],
      "name": "withdrawPreviousSessionTokensFromHouseOffering",
      "outputs": [],
      "payable": false,
      "stateMutability": "nonpayable",
      "type": "function"
    },
    {
      "constant": true,
      "inputs": [
        {
          "name": "",
          "type": "uint256"
        }
      ],
      "name": "authorizedAddresses",
      "outputs": [
        {
          "name": "",
          "type": "address"
        }
      ],
      "payable": false,
      "stateMutability": "view",
      "type": "function"
    },
    {
      "constant": false,
      "inputs": [
        {
          "name": "houseLotteryAddress",
          "type": "address"
        }
      ],
      "name": "setHouseLotteryAddress",
      "outputs": [],
      "payable": false,
      "stateMutability": "nonpayable",
      "type": "function"
    },
    {
      "constant": false,
      "inputs": [
        {
          "name": "session",
          "type": "uint256"
        }
      ],
      "name": "payoutRolledOverCredits",
      "outputs": [],
      "payable": false,
      "stateMutability": "nonpayable",
      "type": "function"
    },
    {
      "constant": true,
      "inputs": [
        {
          "name": "",
          "type": "address"
        }
      ],
      "name": "authorized",
      "outputs": [
        {
          "name": "",
          "type": "bool"
        }
      ],
      "payable": false,
      "stateMutability": "view",
      "type": "function"
    },
    {
      "constant": false,
      "inputs": [
        {
          "name": "houseOffering",
          "type": "address"
        }
      ],
      "name": "depositAllocatedTokensToHouseOffering",
      "outputs": [],
      "payable": false,
      "stateMutability": "nonpayable",
      "type": "function"
    },
    {
      "constant": true,
      "inputs": [
        {
          "name": "",
          "type": "uint256"
        },
        {
          "name": "",
          "type": "address"
        },
        {
          "name": "",
          "type": "uint256"
        }
      ],
      "name": "lotteryUserTickets",
      "outputs": [
        {
          "name": "",
          "type": "uint256"
        }
      ],
      "payable": false,
      "stateMutability": "view",
      "type": "function"
    },
    {
      "constant": false,
      "inputs": [
        {
          "name": "amount",
          "type": "uint256"
        }
      ],
      "name": "purchaseCredits",
      "outputs": [],
      "payable": false,
      "stateMutability": "nonpayable",
      "type": "function"
    },
    {
      "constant": false,
      "inputs": [
        {
          "name": "session",
          "type": "uint256"
        }
      ],
      "name": "pickLotteryWinner",
      "outputs": [],
      "payable": true,
      "stateMutability": "payable",
      "type": "function"
    },
    {
      "constant": true,
      "inputs": [],
      "name": "decentBetToken",
      "outputs": [
        {
          "name": "",
          "type": "address"
        }
      ],
      "payable": false,
      "stateMutability": "view",
      "type": "function"
    },
    {
      "constant": false,
      "inputs": [
        {
          "name": "session",
          "type": "uint256"
        }
      ],
      "name": "updateWinningLotteryTicket",
      "outputs": [],
      "payable": false,
      "stateMutability": "nonpayable",
      "type": "function"
    },
    {
      "constant": true,
      "inputs": [],
      "name": "currentSession",
      "outputs": [
        {
          "name": "",
          "type": "uint256"
        }
      ],
      "payable": false,
      "stateMutability": "view",
      "type": "function"
    },
    {
      "constant": true,
      "inputs": [],
      "name": "sessionZeroStartTime",
      "outputs": [
        {
          "name": "",
          "type": "uint256"
        }
      ],
      "payable": false,
      "stateMutability": "view",
      "type": "function"
    },
    {
      "constant": true,
      "inputs": [],
      "name": "PROFIT_SHARE_PERCENT",
      "outputs": [
        {
          "name": "",
          "type": "uint256"
        }
      ],
      "payable": false,
      "stateMutability": "view",
      "type": "function"
    },
    {
      "constant": false,
      "inputs": [
        {
          "name": "session",
          "type": "uint256"
        }
      ],
      "name": "getPayoutPerCredit",
      "outputs": [
        {
          "name": "",
          "type": "uint256"
        }
      ],
      "payable": false,
      "stateMutability": "nonpayable",
      "type": "function"
    },
    {
      "inputs": [
        {
          "name": "decentBetTokenAddress",
          "type": "address"
        }
      ],
      "payable": false,
      "stateMutability": "nonpayable",
      "type": "constructor"
    },
    {
      "payable": false,
      "stateMutability": "nonpayable",
      "type": "fallback"
    },
    {
      "anonymous": false,
      "inputs": [
        {
          "indexed": false,
          "name": "creditHolder",
          "type": "address"
        },
        {
          "indexed": false,
          "name": "session",
          "type": "uint256"
        },
        {
          "indexed": false,
          "name": "amount",
          "type": "uint256"
        },
        {
          "indexed": false,
          "name": "balance",
          "type": "uint256"
        }
      ],
      "name": "LogPurchasedCredits",
      "type": "event"
    },
    {
      "anonymous": false,
      "inputs": [
        {
          "indexed": false,
          "name": "creditHolder",
          "type": "address"
        },
        {
          "indexed": false,
          "name": "session",
          "type": "uint256"
        },
        {
          "indexed": false,
          "name": "amount",
          "type": "uint256"
        },
        {
          "indexed": false,
          "name": "payout",
          "type": "uint256"
        },
        {
          "indexed": false,
          "name": "balance",
          "type": "uint256"
        }
      ],
      "name": "LogLiquidateCredits",
      "type": "event"
    },
    {
      "anonymous": false,
      "inputs": [
        {
          "indexed": false,
          "name": "creditHolder",
          "type": "address"
        },
        {
          "indexed": false,
          "name": "session",
          "type": "uint256"
        },
        {
          "indexed": false,
          "name": "amount",
          "type": "uint256"
        },
        {
          "indexed": false,
          "name": "payout",
          "type": "uint256"
        }
      ],
      "name": "LogPayoutRolledOverCredits",
      "type": "event"
    },
    {
      "anonymous": false,
      "inputs": [
        {
          "indexed": false,
          "name": "creditHolder",
          "type": "address"
        },
        {
          "indexed": false,
          "name": "session",
          "type": "uint256"
        },
        {
          "indexed": false,
          "name": "amount",
          "type": "uint256"
        }
      ],
      "name": "LogRolledOverCredits",
      "type": "event"
    },
    {
      "anonymous": false,
      "inputs": [
        {
          "indexed": false,
          "name": "session",
          "type": "uint256"
        },
        {
          "indexed": false,
          "name": "startTimestamp",
          "type": "uint256"
        },
        {
          "indexed": false,
          "name": "startBlockNumber",
          "type": "uint256"
        },
        {
          "indexed": false,
          "name": "endTimestamp",
          "type": "uint256"
        },
        {
          "indexed": false,
          "name": "endBlockNumber",
          "type": "uint256"
        }
      ],
      "name": "LogNewSession",
      "type": "event"
    },
    {
      "anonymous": false,
      "inputs": [
        {
          "indexed": false,
          "name": "offeringAddress",
          "type": "address"
        },
        {
          "indexed": false,
          "name": "name",
          "type": "bytes32"
        }
      ],
      "name": "LogNewHouseOffering",
      "type": "event"
    },
    {
      "anonymous": false,
      "inputs": [
        {
          "indexed": false,
          "name": "session",
          "type": "uint256"
        },
        {
          "indexed": false,
          "name": "participantCount",
          "type": "uint256"
        }
      ],
      "name": "LogPickLotteryWinner",
      "type": "event"
    },
    {
      "anonymous": false,
      "inputs": [
        {
          "indexed": false,
          "name": "session",
          "type": "uint256"
        },
        {
          "indexed": false,
          "name": "ticketNumber",
          "type": "uint256"
        },
        {
          "indexed": false,
          "name": "_address",
          "type": "address"
        }
      ],
      "name": "LogWinningTicket",
      "type": "event"
    },
    {
      "anonymous": false,
      "inputs": [
        {
          "indexed": false,
          "name": "session",
          "type": "uint256"
        },
        {
          "indexed": false,
          "name": "offering",
          "type": "address"
        },
        {
          "indexed": false,
          "name": "percentage",
          "type": "uint256"
        }
      ],
      "name": "LogOfferingAllocation",
      "type": "event"
    },
    {
      "anonymous": false,
      "inputs": [
        {
          "indexed": false,
          "name": "session",
          "type": "uint256"
        },
        {
          "indexed": false,
          "name": "offering",
          "type": "address"
        },
        {
          "indexed": false,
          "name": "percentage",
          "type": "uint256"
        },
        {
          "indexed": false,
          "name": "amount",
          "type": "uint256"
        }
      ],
      "name": "LogOfferingDeposit",
      "type": "event"
    }
  ],
  "bytecode": "0x6060604052426001556000600760006101000a81548160ff0219169083151502179055506000600855600060095534156200003957600080fd5b60405160208062004f1b8339810160405280805190602001909190505060008173ffffffffffffffffffffffffffffffffffffffff1614156200007b57600080fd5b33600360006101000a81548173ffffffffffffffffffffffffffffffffffffffff021916908373ffffffffffffffffffffffffffffffffffffffff16021790555060068054806001018281620000d2919062000282565b91600052602060002090016000600360009054906101000a900473ffffffffffffffffffffffffffffffffffffffff16909190916101000a81548173ffffffffffffffffffffffffffffffffffffffff021916908373ffffffffffffffffffffffffffffffffffffffff16021790555050600160116000600360009054906101000a900473ffffffffffffffffffffffffffffffffffffffff1673ffffffffffffffffffffffffffffffffffffffff1673ffffffffffffffffffffffffffffffffffffffff16815260200190815260200160002060006101000a81548160ff02191690831515021790555080600a60006101000a81548173ffffffffffffffffffffffffffffffffffffffff021916908373ffffffffffffffffffffffffffffffffffffffff16021790555060016000806101000a81548160ff02191690831515021790555062000237336200023e6401000000000262004bc2176401000000009004565b50620002d9565b80600260006101000a81548173ffffffffffffffffffffffffffffffffffffffff021916908373ffffffffffffffffffffffffffffffffffffffff16021790555050565b815481835581811511620002ac57818360005260206000209182019101620002ab9190620002b1565b5b505050565b620002d691905b80821115620002d2576000816000905550600101620002b8565b5090565b90565b614c3280620002e96000396000f3006060604052600436106101d8576000357c0100000000000000000000000000000000000000000000000000000000900463ffffffff168063043e57fb146101e857806308718b451461022a5780630fd82c051461024d5780631398e076146102b95780631a102add146103145780631bfd320f1461036957806322f3e2d4146103a257806326467507146103cf57806328ccaa29146103f25780633beb26c41461041f578063427b208114610442578063467f48b6146104a55780634d853ee5146104ff578063513b2b0a1461055457806353665311146105c0578063557ed1ba146105ec5780636980195a1461061557806370741aae1461064e57806377765a04146106635780637ac6adcb146106b857806383c4b7a3146106f15780638449e7351461074f5780638f7a367d146107be578063927ef3361461081f57806395874631146108585780639c046b8f146108bb578063ac42e5bc146108f4578063b918161114610917578063b9f2ef3014610968578063ba47a6ef146109a1578063bef101fb14610a00578063c2b3202c14610a23578063cba44d4f14610a3b578063d05233a214610a90578063d416676314610ab3578063f2639b4214610adc578063f95e7ba214610b05578063fb2240e314610b2e575b34156101e357600080fd5b600080fd5b34156101f357600080fd5b610228600480803590602001909190803573ffffffffffffffffffffffffffffffffffffffff16906020019091905050610b65565b005b341561023557600080fd5b61024b6004808035906020019091905050610ee6565b005b341561025857600080fd5b6102776004808035906020019091908035906020019091905050611193565b604051808273ffffffffffffffffffffffffffffffffffffffff1673ffffffffffffffffffffffffffffffffffffffff16815260200191505060405180910390f35b34156102c457600080fd5b6102da60048080359060200190919050506111d5565b6040518086815260200185815260200184815260200183151515158152602001821515151581526020019550505050505060405180910390f35b341561031f57600080fd5b610327611225565b604051808273ffffffffffffffffffffffffffffffffffffffff1673ffffffffffffffffffffffffffffffffffffffff16815260200191505060405180910390f35b341561037457600080fd5b6103a0600480803573ffffffffffffffffffffffffffffffffffffffff1690602001909190505061124b565b005b34156103ad57600080fd5b6103b5611365565b604051808215151515815260200191505060405180910390f35b34156103da57600080fd5b6103f06004808035906020019091905050611378565b005b34156103fd57600080fd5b6104056117d7565b604051808215151515815260200191505060405180910390f35b341561042a57600080fd5b61044060048080359060200190919050506117e9565b005b341561044d57600080fd5b610463600480803590602001909190505061184f565b604051808273ffffffffffffffffffffffffffffffffffffffff1673ffffffffffffffffffffffffffffffffffffffff16815260200191505060405180910390f35b34156104b057600080fd5b6104c6600480803590602001909190505061188e565b60405180878152602001868152602001858152602001848152602001838152602001828152602001965050505050505060405180910390f35b341561050a57600080fd5b6105126118ca565b604051808273ffffffffffffffffffffffffffffffffffffffff1673ffffffffffffffffffffffffffffffffffffffff16815260200191505060405180910390f35b341561055f57600080fd5b61057e60048080359060200190919080359060200190919050506118f0565b604051808273ffffffffffffffffffffffffffffffffffffffff1673ffffffffffffffffffffffffffffffffffffffff16815260200191505060405180910390f35b34156105cb57600080fd5b6105ea6004808035906020019091908035906020019091905050611949565b005b34156105f757600080fd5b6105ff611ef1565b6040518082815260200191505060405180910390f35b341561062057600080fd5b61064c600480803573ffffffffffffffffffffffffffffffffffffffff16906020019091905050611f15565b005b341561065957600080fd5b6106616120fc565b005b341561066e57600080fd5b6106766125e6565b604051808273ffffffffffffffffffffffffffffffffffffffff1673ffffffffffffffffffffffffffffffffffffffff16815260200191505060405180910390f35b34156106c357600080fd5b6106ef600480803573ffffffffffffffffffffffffffffffffffffffff1690602001909190505061260c565b005b34156106fc57600080fd5b6107126004808035906020019091905050612a38565b6040518087815260200186815260200185151515158152602001848152602001838152602001828152602001965050505050505060405180910390f35b341561075a57600080fd5b61078f600480803590602001909190803573ffffffffffffffffffffffffffffffffffffffff16906020019091905050612a81565b604051808581526020018481526020018381526020018215151515815260200194505050505060405180910390f35b34156107c957600080fd5b6107fe600480803590602001909190803573ffffffffffffffffffffffffffffffffffffffff16906020019091905050612c01565b60405180838152602001821515151581526020019250505060405180910390f35b341561082a57600080fd5b610856600480803573ffffffffffffffffffffffffffffffffffffffff16906020019091905050612cca565b005b341561086357600080fd5b6108796004808035906020019091905050613113565b604051808273ffffffffffffffffffffffffffffffffffffffff1673ffffffffffffffffffffffffffffffffffffffff16815260200191505060405180910390f35b34156108c657600080fd5b6108f2600480803573ffffffffffffffffffffffffffffffffffffffff16906020019091905050613152565b005b34156108ff57600080fd5b61091560048080359060200190919050506131f2565b005b341561092257600080fd5b61094e600480803573ffffffffffffffffffffffffffffffffffffffff1690602001909190505061354d565b604051808215151515815260200191505060405180910390f35b341561097357600080fd5b61099f600480803573ffffffffffffffffffffffffffffffffffffffff1690602001909190505061356d565b005b34156109ac57600080fd5b6109ea600480803590602001909190803573ffffffffffffffffffffffffffffffffffffffff16906020019091908035906020019091905050613ae8565b6040518082815260200191505060405180910390f35b3415610a0b57600080fd5b610a216004808035906020019091905050613b26565b005b610a3960048080359060200190919050506144a6565b005b3415610a4657600080fd5b610a4e6146d4565b604051808273ffffffffffffffffffffffffffffffffffffffff1673ffffffffffffffffffffffffffffffffffffffff16815260200191505060405180910390f35b3415610a9b57600080fd5b610ab160048080359060200190919050506146fa565b005b3415610abe57600080fd5b610ac66149ac565b6040518082815260200191505060405180910390f35b3415610ae757600080fd5b610aef6149b2565b6040518082815260200191505060405180910390f35b3415610b1057600080fd5b610b186149b8565b6040518082815260200191505060405180910390f35b3415610b3957600080fd5b610b4f60048080359060200190919050506149bd565b6040518082815260200191505060405180910390f35b6000806000600854148015610b7c57506000600954145b15610b8657600080fd5b600060085414158015610bbc5750621275006012600060085481526020019081526020016000206001015403610bba611ef1565b105b80610bea575062093a806012600060085481526020019081526020016000206001015403610be8611ef1565b115b15610bf457600080fd5b82601060008273ffffffffffffffffffffffffffffffffffffffff1673ffffffffffffffffffffffffffffffffffffffff16815260200190815260200160002060000160149054906101000a900460ff161515610c5057600080fd5b60003373ffffffffffffffffffffffffffffffffffffffff161415610c7457600080fd5b60001515601160003373ffffffffffffffffffffffffffffffffffffffff1673ffffffffffffffffffffffffffffffffffffffff16815260200190815260200160002060009054906101000a900460ff1615151415610cd257600080fd5b60016008540192506064610cfc601260008681526020019081526020016000206006015487614a7f565b1115610d0757600080fd5b6012600084815260200190815260200160002060050160008573ffffffffffffffffffffffffffffffffffffffff1673ffffffffffffffffffffffffffffffffffffffff16815260200190815260200160002060010160009054906101000a900460ff1615610d7557600080fd5b6012600084815260200190815260200160002060050160008573ffffffffffffffffffffffffffffffffffffffff1673ffffffffffffffffffffffffffffffffffffffff168152602001908152602001600020600001549150846012600085815260200190815260200160002060050160008673ffffffffffffffffffffffffffffffffffffffff1673ffffffffffffffffffffffffffffffffffffffff16815260200190815260200160002060000181905550610e52610e4c601260008681526020019081526020016000206006015487614a7f565b83614aa9565b60126000858152602001908152602001600020600601819055507fc1520f1171a70e97696be02c2c018fb1bd1d75b5d84cb93911751d95e7af0612838587604051808481526020018373ffffffffffffffffffffffffffffffffffffffff1673ffffffffffffffffffffffffffffffffffffffff168152602001828152602001935050505060405180910390a15050505050565b600080826000811415610ef857600080fd5b62054600601260008381526020019081526020016000206001015401610f1c611ef1565b1015610f2757600080fd5b600d600085815260200190815260200160002060030160019054906101000a900460ff161515610f5657600080fd5b600d600085815260200190815260200160002060030160009054906101000a900460ff1615610f8457600080fd5b3373ffffffffffffffffffffffffffffffffffffffff16600e60008681526020019081526020016000206000600d600088815260200190815260200160002060010154815260200190815260200160002060009054906101000a900473ffffffffffffffffffffffffffffffffffffffff1673ffffffffffffffffffffffffffffffffffffffff1614151561101857600080fd5b611021846149bd565b925061104e611047600c6000878152602001908152602001600020600101546005614ac2565b6064614af5565b915081600d6000868152602001908152602001600020600201819055506001600d600086815260200190815260200160002060030160006101000a81548160ff021916908315150217905550600a60009054906101000a900473ffffffffffffffffffffffffffffffffffffffff1673ffffffffffffffffffffffffffffffffffffffff1663a9059cbb33846000604051602001526040518363ffffffff167c0100000000000000000000000000000000000000000000000000000000028152600401808373ffffffffffffffffffffffffffffffffffffffff1673ffffffffffffffffffffffffffffffffffffffff16815260200182815260200192505050602060405180830381600087803b151561116757600080fd5b6102c65a03f1151561117857600080fd5b50505060405180519050151561118d57600080fd5b50505050565b600e6020528160005260406000206020528060005260406000206000915091509054906101000a900473ffffffffffffffffffffffffffffffffffffffff1681565b600d6020528060005260406000206000915090508060000154908060010154908060020154908060030160009054906101000a900460ff16908060030160019054906101000a900460ff16905085565b600260009054906101000a900473ffffffffffffffffffffffffffffffffffffffff1681565b600360009054906101000a900473ffffffffffffffffffffffffffffffffffffffff1673ffffffffffffffffffffffffffffffffffffffff163373ffffffffffffffffffffffffffffffffffffffff161415156112a757600080fd5b600680548060010182816112bb9190614b45565b9160005260206000209001600083909190916101000a81548173ffffffffffffffffffffffffffffffffffffffff021916908373ffffffffffffffffffffffffffffffffffffffff160217905550506001601160008373ffffffffffffffffffffffffffffffffffffffff1673ffffffffffffffffffffffffffffffffffffffff16815260200190815260200160002060006101000a81548160ff02191690831515021790555050565b600760009054906101000a900460ff1681565b6000806000600854600c600082815260200190815260200160002060030160003373ffffffffffffffffffffffffffffffffffffffff1673ffffffffffffffffffffffffffffffffffffffff16815260200190815260200160002060030160009054906101000a900460ff1615156113ef57600080fd5b6008548580600c600084815260200190815260200160002060030160003373ffffffffffffffffffffffffffffffffffffffff1673ffffffffffffffffffffffffffffffffffffffff16815260200190815260200160002060000154101561145657600080fd5b600060085414801561146a57506000600954145b1561147457600080fd5b6000600854141580156114aa57506212750060126000600854815260200190815260200160002060010154036114a8611ef1565b105b806114d8575062093a8060126000600854815260200190815260200160002060010154036114d6611ef1565b115b156114e257600080fd5b600060085414156114f257600080fd5b600c6000600854815260200190815260200160002060030160003373ffffffffffffffffffffffffffffffffffffffff1673ffffffffffffffffffffffffffffffffffffffff16815260200190815260200160002060000154955061155a6008546001614a7f565b9450600c600086815260200190815260200160002060030160003373ffffffffffffffffffffffffffffffffffffffff1673ffffffffffffffffffffffffffffffffffffffff1681526020019081526020016000206000015493506115bf8688614aa9565b600c6000600854815260200190815260200160002060030160003373ffffffffffffffffffffffffffffffffffffffff1673ffffffffffffffffffffffffffffffffffffffff168152602001908152602001600020600001819055506116258688614a7f565b600c6000600854815260200190815260200160002060030160003373ffffffffffffffffffffffffffffffffffffffff1673ffffffffffffffffffffffffffffffffffffffff1681526020019081526020016000206002018190555061168b8488614a7f565b600c600087815260200190815260200160002060030160003373ffffffffffffffffffffffffffffffffffffffff1673ffffffffffffffffffffffffffffffffffffffff16815260200190815260200160002060000181905550611705600c60008781526020019081526020016000206002015488614a7f565b600c60008781526020019081526020016000206001018190555061173f600c60008781526020019081526020016000206000015488614a7f565b600c6000878152602001908152602001600020600001819055507f4aa297e36c6515eb13f01737cfbdc55623049e3419964c3f0e26c102eb9185f13360085489604051808473ffffffffffffffffffffffffffffffffffffffff1673ffffffffffffffffffffffffffffffffffffffff168152602001838152602001828152602001935050505060405180910390a150505050505050565b6000809054906101000a900460ff1681565b600260009054906101000a900473ffffffffffffffffffffffffffffffffffffffff1673ffffffffffffffffffffffffffffffffffffffff163373ffffffffffffffffffffffffffffffffffffffff1614151561184557600080fd5b8060018190555050565b60058181548110151561185e57fe5b90600052602060002090016000915054906101000a900473ffffffffffffffffffffffffffffffffffffffff1681565b600c6020528060005260406000206000915090508060000154908060010154908060020154908060060154908060070154908060080154905086565b600360009054906101000a900473ffffffffffffffffffffffffffffffffffffffff1681565b6000600c60008481526020019081526020016000206005018281548110151561191557fe5b906000526020600020900160009054906101000a900473ffffffffffffffffffffffffffffffffffffffff16905092915050565b60008083600c600082815260200190815260200160002060030160003373ffffffffffffffffffffffffffffffffffffffff1673ffffffffffffffffffffffffffffffffffffffff16815260200190815260200160002060030160009054906101000a900460ff1615156119bc57600080fd5b848480600c600084815260200190815260200160002060030160003373ffffffffffffffffffffffffffffffffffffffff1673ffffffffffffffffffffffffffffffffffffffff168152602001908152602001600020600001541015611a2157600080fd5b866000811415611a3057600080fd5b62054600601260008381526020019081526020016000206001015401611a54611ef1565b1015611a5f57600080fd5b611a68886149bd565b9550611a7d611a778789614ac2565b88614a7f565b9450611adc600c60008a815260200190815260200160002060040160003373ffffffffffffffffffffffffffffffffffffffff1673ffffffffffffffffffffffffffffffffffffffff1681526020019081526020016000205486614a7f565b600c60008a815260200190815260200160002060040160003373ffffffffffffffffffffffffffffffffffffffff1673ffffffffffffffffffffffffffffffffffffffff16815260200190815260200160002081905550611b53600c60008a81526020019081526020016000206002015488614aa9565b600c60008a815260200190815260200160002060020181905550611bcd600c60008a815260200190815260200160002060030160003373ffffffffffffffffffffffffffffffffffffffff1673ffffffffffffffffffffffffffffffffffffffff1681526020019081526020016000206000015488614aa9565b600c60008a815260200190815260200160002060030160003373ffffffffffffffffffffffffffffffffffffffff1673ffffffffffffffffffffffffffffffffffffffff16815260200190815260200160002060000181905550611c87600c60008a815260200190815260200160002060030160003373ffffffffffffffffffffffffffffffffffffffff1673ffffffffffffffffffffffffffffffffffffffff1681526020019081526020016000206001015488614a7f565b600c60008a815260200190815260200160002060030160003373ffffffffffffffffffffffffffffffffffffffff1673ffffffffffffffffffffffffffffffffffffffff16815260200190815260200160002060010181905550611d01600c60008a81526020019081526020016000206006015486614a7f565b600c60008a815260200190815260200160002060060181905550600a60009054906101000a900473ffffffffffffffffffffffffffffffffffffffff1673ffffffffffffffffffffffffffffffffffffffff1663a9059cbb33876000604051602001526040518363ffffffff167c0100000000000000000000000000000000000000000000000000000000028152600401808373ffffffffffffffffffffffffffffffffffffffff1673ffffffffffffffffffffffffffffffffffffffff16815260200182815260200192505050602060405180830381600087803b1515611de857600080fd5b6102c65a03f11515611df957600080fd5b505050604051805190501515611e0e57600080fd5b7f86351921bb83a7761ed3b30e4b5bde2a916fe7fd89f97f56ed2f321fb64e62cf33898988600c60008e815260200190815260200160002060030160003373ffffffffffffffffffffffffffffffffffffffff1673ffffffffffffffffffffffffffffffffffffffff16815260200190815260200160002060000154604051808673ffffffffffffffffffffffffffffffffffffffff1673ffffffffffffffffffffffffffffffffffffffff1681526020018581526020018481526020018381526020018281526020019550505050505060405180910390a15050505050505050565b60008060009054906101000a900460ff16611f0c5742611f10565b6001545b905090565b6000600360009054906101000a900473ffffffffffffffffffffffffffffffffffffffff1673ffffffffffffffffffffffffffffffffffffffff163373ffffffffffffffffffffffffffffffffffffffff16141515611f7357600080fd5b60001515601160008473ffffffffffffffffffffffffffffffffffffffff1673ffffffffffffffffffffffffffffffffffffffff16815260200190815260200160002060009054906101000a900460ff1615151415611fd157600080fd5b600090505b6006805490508110156120f8578173ffffffffffffffffffffffffffffffffffffffff1660068281548110151561200957fe5b906000526020600020900160009054906101000a900473ffffffffffffffffffffffffffffffffffffffff1673ffffffffffffffffffffffffffffffffffffffff1614156120eb5760068181548110151561206057fe5b906000526020600020900160006101000a81549073ffffffffffffffffffffffffffffffffffffffff02191690556000601160008473ffffffffffffffffffffffffffffffffffffffff1673ffffffffffffffffffffffffffffffffffffffff16815260200190815260200160002060006101000a81548160ff0219169083151502179055506120f8565b8080600101915050611fd6565b5050565b60008060006008541480156121295750600060126000600854815260200190815260200160002060010154145b158015612154575060126000600854815260200190815260200160002060010154612152611ef1565b105b1561215e57600080fd5b60003373ffffffffffffffffffffffffffffffffffffffff16141561218257600080fd5b60001515601160003373ffffffffffffffffffffffffffffffffffffffff1673ffffffffffffffffffffffffffffffffffffffff16815260200190815260200160002060009054906101000a900460ff16151514156121e057600080fd5b6121ed6008546001614a7f565b9150600060126000600854815260200190815260200160002060020160006101000a81548160ff021916908315150217905550600060085414801561223457506000600954145b1561233c57612241611ef1565b60098190555061224f611ef1565b601260006008548152602001908152602001600020600001819055506122906012600060085481526020019081526020016000206000015462127500614a7f565b601260006008548152602001908152602001600020600101819055507f26e32cdac32e02b102d578e8043c11894b274140b95cd8508879654739af11a7600854601260006008548152602001908152602001600020600001546000601260006008548152602001908152602001600020600101546000604051808681526020018581526020018481526020018381526020018281526020019550505050505060405180910390a16125e2565b612344611ef1565b60126000848152602001908152602001600020600001819055506123816012600084815260200190815260200160002060000154626ebe00614a7f565b601260008481526020019081526020016000206001018190555060016012600084815260200190815260200160002060020160006101000a81548160ff021916908315150217905550816008819055506012600083815260200190815260200160002060030180549050601260008481526020019081526020016000206007015414151561240e57600080fd5b600090505b60058054905081101561255c576010600060058381548110151561243357fe5b906000526020600020900160009054906101000a900473ffffffffffffffffffffffffffffffffffffffff1673ffffffffffffffffffffffffffffffffffffffff1673ffffffffffffffffffffffffffffffffffffffff16815260200190815260200160002060000160009054906101000a900473ffffffffffffffffffffffffffffffffffffffff1673ffffffffffffffffffffffffffffffffffffffff16639102fa87836000604051602001526040518263ffffffff167c010000000000000000000000000000000000000000000000000000000002815260040180828152602001915050602060405180830381600087803b151561253357600080fd5b6102c65a03f1151561254457600080fd5b50505060405180519050508080600101915050612413565b7f26e32cdac32e02b102d578e8043c11894b274140b95cd8508879654739af11a7826012600085815260200190815260200160002060000154600060126000878152602001908152602001600020600101546000604051808681526020018581526020018481526020018381526020018281526020019550505050505060405180910390a15b5050565b600460009054906101000a900473ffffffffffffffffffffffffffffffffffffffff1681565b6000600360009054906101000a900473ffffffffffffffffffffffffffffffffffffffff1673ffffffffffffffffffffffffffffffffffffffff163373ffffffffffffffffffffffffffffffffffffffff1614151561266a57600080fd5b60008273ffffffffffffffffffffffffffffffffffffffff16141561268e57600080fd5b8173ffffffffffffffffffffffffffffffffffffffff16630795be776000604051602001526040518163ffffffff167c0100000000000000000000000000000000000000000000000000000000028152600401602060405180830381600087803b15156126fa57600080fd5b6102c65a03f1151561270b57600080fd5b50505060405180519050151561272057600080fd5b60016008540190506005805480600101828161273c9190614b45565b9160005260206000209001600084909190916101000a81548173ffffffffffffffffffffffffffffffffffffffff021916908373ffffffffffffffffffffffffffffffffffffffff1602179055505060408051908101604052808373ffffffffffffffffffffffffffffffffffffffff16815260200160011515815250601060008473ffffffffffffffffffffffffffffffffffffffff1673ffffffffffffffffffffffffffffffffffffffff16815260200190815260200160002060008201518160000160006101000a81548173ffffffffffffffffffffffffffffffffffffffff021916908373ffffffffffffffffffffffffffffffffffffffff16021790555060208201518160000160146101000a81548160ff02191690831515021790555090505060126000828152602001908152602001600020600301805480600101828161288a9190614b45565b9160005260206000209001600084909190916101000a81548173ffffffffffffffffffffffffffffffffffffffff021916908373ffffffffffffffffffffffffffffffffffffffff160217905550507f8ec21fe3ac69eda88d37625417356823537b4cdbef84b042d585f456b3e51e1d82601060008573ffffffffffffffffffffffffffffffffffffffff1673ffffffffffffffffffffffffffffffffffffffff16815260200190815260200160002060000160009054906101000a900473ffffffffffffffffffffffffffffffffffffffff1673ffffffffffffffffffffffffffffffffffffffff166306fdde036000604051602001526040518163ffffffff167c0100000000000000000000000000000000000000000000000000000000028152600401602060405180830381600087803b15156129c957600080fd5b6102c65a03f115156129da57600080fd5b50505060405180519050604051808373ffffffffffffffffffffffffffffffffffffffff1673ffffffffffffffffffffffffffffffffffffffff16815260200182600019166000191681526020019250505060405180910390a15050565b60126020528060005260406000206000915090508060000154908060010154908060020160009054906101000a900460ff16908060040154908060060154908060070154905086565b600080600080600c600087815260200190815260200160002060030160008673ffffffffffffffffffffffffffffffffffffffff1673ffffffffffffffffffffffffffffffffffffffff16815260200190815260200160002060000154600c600088815260200190815260200160002060030160008773ffffffffffffffffffffffffffffffffffffffff1673ffffffffffffffffffffffffffffffffffffffff16815260200190815260200160002060010154600c600089815260200190815260200160002060030160008873ffffffffffffffffffffffffffffffffffffffff1673ffffffffffffffffffffffffffffffffffffffff16815260200190815260200160002060020154600c60008a815260200190815260200160002060030160008973ffffffffffffffffffffffffffffffffffffffff1673ffffffffffffffffffffffffffffffffffffffff16815260200190815260200160002060030160009054906101000a900460ff16935093509350935092959194509250565b6000806012600085815260200190815260200160002060050160008473ffffffffffffffffffffffffffffffffffffffff1673ffffffffffffffffffffffffffffffffffffffff168152602001908152602001600020600001546012600086815260200190815260200160002060050160008573ffffffffffffffffffffffffffffffffffffffff1673ffffffffffffffffffffffffffffffffffffffff16815260200190815260200160002060010160009054906101000a900460ff16915091509250929050565b60008082601060008273ffffffffffffffffffffffffffffffffffffffff1673ffffffffffffffffffffffffffffffffffffffff16815260200190815260200160002060000160149054906101000a900460ff161515612d2957600080fd5b60003373ffffffffffffffffffffffffffffffffffffffff161415612d4d57600080fd5b60001515601160003373ffffffffffffffffffffffffffffffffffffffff1673ffffffffffffffffffffffffffffffffffffffff16815260200190815260200160002060009054906101000a900460ff1615151415612dab57600080fd5b60016008540392506001600854111515612dc457600080fd5b6202a300601260008581526020019081526020016000206001015401612de8611ef1565b1015612df357600080fd5b601060008573ffffffffffffffffffffffffffffffffffffffff1673ffffffffffffffffffffffffffffffffffffffff16815260200190815260200160002060000160009054906101000a900473ffffffffffffffffffffffffffffffffffffffff1673ffffffffffffffffffffffffffffffffffffffff1662fdd58e30856000604051602001526040518363ffffffff167c0100000000000000000000000000000000000000000000000000000000028152600401808373ffffffffffffffffffffffffffffffffffffffff1673ffffffffffffffffffffffffffffffffffffffff16815260200182815260200192505050602060405180830381600087803b1515612eff57600080fd5b6102c65a03f11515612f1057600080fd5b505050604051805190509150612f3c600c60008581526020019081526020016000206007015483614a7f565b600c600085815260200190815260200160002060070181905550612f7760126000858152602001908152602001600020600401546001614a7f565b601260008581526020019081526020016000206004018190555060126000848152602001908152602001600020600301805490506012600085815260200190815260200160002060040154141561301957612ffe600c600085815260200190815260200160002060070154600c600086815260200190815260200160002060000154614aa9565b600c6000858152602001908152602001600020600801819055505b601060008573ffffffffffffffffffffffffffffffffffffffff1673ffffffffffffffffffffffffffffffffffffffff16815260200190815260200160002060000160009054906101000a900473ffffffffffffffffffffffffffffffffffffffff1673ffffffffffffffffffffffffffffffffffffffff166336d699536000604051602001526040518163ffffffff167c0100000000000000000000000000000000000000000000000000000000028152600401602060405180830381600087803b15156130e757600080fd5b6102c65a03f115156130f857600080fd5b50505060405180519050151561310d57600080fd5b50505050565b60068181548110151561312257fe5b90600052602060002090016000915054906101000a900473ffffffffffffffffffffffffffffffffffffffff1681565b600360009054906101000a900473ffffffffffffffffffffffffffffffffffffffff1673ffffffffffffffffffffffffffffffffffffffff163373ffffffffffffffffffffffffffffffffffffffff161415156131ae57600080fd5b80600b60006101000a81548173ffffffffffffffffffffffffffffffffffffffff021916908373ffffffffffffffffffffffffffffffffffffffff16021790555050565b600080600083600c600082815260200190815260200160002060030160003373ffffffffffffffffffffffffffffffffffffffff1673ffffffffffffffffffffffffffffffffffffffff16815260200190815260200160002060030160009054906101000a900460ff16151561326757600080fd5b846000600c600083815260200190815260200160002060030160003373ffffffffffffffffffffffffffffffffffffffff1673ffffffffffffffffffffffffffffffffffffffff1681526020019081526020016000206002015414156132cc57600080fd5b8560008114156132db57600080fd5b620546006012600083815260200190815260200160002060010154016132ff611ef1565b101561330a57600080fd5b613313876149bd565b9550600c600088815260200190815260200160002060030160003373ffffffffffffffffffffffffffffffffffffffff1673ffffffffffffffffffffffffffffffffffffffff1681526020019081526020016000206002015494506133788686614ac2565b93506000600c600089815260200190815260200160002060030160003373ffffffffffffffffffffffffffffffffffffffff1673ffffffffffffffffffffffffffffffffffffffff16815260200190815260200160002060020181905550600a60009054906101000a900473ffffffffffffffffffffffffffffffffffffffff1673ffffffffffffffffffffffffffffffffffffffff1663a9059cbb33866000604051602001526040518363ffffffff167c0100000000000000000000000000000000000000000000000000000000028152600401808373ffffffffffffffffffffffffffffffffffffffff1673ffffffffffffffffffffffffffffffffffffffff16815260200182815260200192505050602060405180830381600087803b15156134a357600080fd5b6102c65a03f115156134b457600080fd5b5050506040518051905015156134c957600080fd5b7f6f126fe8e80423c4c06715ff49e7321cbdc5223c9a0da3d75396eb5bbf30913b33888787604051808573ffffffffffffffffffffffffffffffffffffffff1673ffffffffffffffffffffffffffffffffffffffff16815260200184815260200183815260200182815260200194505050505060405180910390a150505050505050565b60116020528060005260406000206000915054906101000a900460ff1681565b60008060008060085414801561358557506000600954145b1561358f57600080fd5b62093a8060126000600854815260200190815260200160002060010154036135b5611ef1565b10806135df5750601260006008548152602001908152602001600020600101546135dd611ef1565b115b156135e957600080fd5b83601060008273ffffffffffffffffffffffffffffffffffffffff1673ffffffffffffffffffffffffffffffffffffffff16815260200190815260200160002060000160149054906101000a900460ff16151561364557600080fd5b60003373ffffffffffffffffffffffffffffffffffffffff16141561366957600080fd5b60001515601160003373ffffffffffffffffffffffffffffffffffffffff1673ffffffffffffffffffffffffffffffffffffffff16815260200190815260200160002060009054906101000a900460ff16151514156136c757600080fd5b60016008540193506012600085815260200190815260200160002060050160008673ffffffffffffffffffffffffffffffffffffffff1673ffffffffffffffffffffffffffffffffffffffff16815260200190815260200160002060010160009054906101000a900460ff161561373d57600080fd5b6012600085815260200190815260200160002060050160008673ffffffffffffffffffffffffffffffffffffffff1673ffffffffffffffffffffffffffffffffffffffff1681526020019081526020016000206000015492506137c06137b9600c60008781526020019081526020016000206000015485614ac2565b6064614af5565b915060016012600086815260200190815260200160002060050160008773ffffffffffffffffffffffffffffffffffffffff1673ffffffffffffffffffffffffffffffffffffffff16815260200190815260200160002060010160006101000a81548160ff02191690831515021790555061385260126000868152602001908152602001600020600701546001614a7f565b6012600086815260200190815260200160002060070181905550600a60009054906101000a900473ffffffffffffffffffffffffffffffffffffffff1673ffffffffffffffffffffffffffffffffffffffff1663095ea7b386846000604051602001526040518363ffffffff167c0100000000000000000000000000000000000000000000000000000000028152600401808373ffffffffffffffffffffffffffffffffffffffff1673ffffffffffffffffffffffffffffffffffffffff16815260200182815260200192505050602060405180830381600087803b151561393957600080fd5b6102c65a03f1151561394a57600080fd5b50505060405180519050151561395f57600080fd5b601060008673ffffffffffffffffffffffffffffffffffffffff1673ffffffffffffffffffffffffffffffffffffffff16815260200190815260200160002060000160009054906101000a900473ffffffffffffffffffffffffffffffffffffffff1673ffffffffffffffffffffffffffffffffffffffff16636858acad83866000604051602001526040518363ffffffff167c01000000000000000000000000000000000000000000000000000000000281526004018083815260200182815260200192505050602060405180830381600087803b1515613a4057600080fd5b6102c65a03f11515613a5157600080fd5b505050604051805190501515613a6657600080fd5b7fc74af56e8accef7062ae3db649310f4a651d9b3379431853301b25b76373b31784868585604051808581526020018473ffffffffffffffffffffffffffffffffffffffff1673ffffffffffffffffffffffffffffffffffffffff16815260200183815260200182815260200194505050505060405180910390a15050505050565b600f60205282600052604060002060205281600052604060002081815481101515613b0f57fe5b906000526020600020900160009250925050505481565b600080600080600080600854148015613b4157506000600954145b15613b4b57600080fd5b600060085414158015613b815750621275006012600060085481526020019081526020016000206001015403613b7f611ef1565b105b80613baf575062093a806012600060085481526020019081526020016000206001015403613bad611ef1565b115b15613bb957600080fd5b8580600a60009054906101000a900473ffffffffffffffffffffffffffffffffffffffff1673ffffffffffffffffffffffffffffffffffffffff166370a08231336000604051602001526040518263ffffffff167c0100000000000000000000000000000000000000000000000000000000028152600401808273ffffffffffffffffffffffffffffffffffffffff1673ffffffffffffffffffffffffffffffffffffffff168152602001915050602060405180830381600087803b1515613c8057600080fd5b6102c65a03f11515613c9157600080fd5b505050604051805190501015613ca657600080fd5b86600a60009054906101000a900473ffffffffffffffffffffffffffffffffffffffff1673ffffffffffffffffffffffffffffffffffffffff1663dd62ed3e33306000604051602001526040518363ffffffff167c0100000000000000000000000000000000000000000000000000000000028152600401808373ffffffffffffffffffffffffffffffffffffffff1673ffffffffffffffffffffffffffffffffffffffff1681526020018273ffffffffffffffffffffffffffffffffffffffff1673ffffffffffffffffffffffffffffffffffffffff16815260200192505050602060405180830381600087803b1515613da057600080fd5b6102c65a03f11515613db157600080fd5b505050604051805190501015613dc657600080fd5b613dd36008546001614a7f565b9550613df5600c60008881526020019081526020016000206000015488614a7f565b600c600088815260200190815260200160002060000181905550613e2f600c60008881526020019081526020016000206001015488614a7f565b600c600088815260200190815260200160002060010181905550613e69600c60008881526020019081526020016000206002015488614a7f565b600c600088815260200190815260200160002060020181905550613ee3600c600088815260200190815260200160002060030160003373ffffffffffffffffffffffffffffffffffffffff1673ffffffffffffffffffffffffffffffffffffffff1681526020019081526020016000206000015488614a7f565b600c600088815260200190815260200160002060030160003373ffffffffffffffffffffffffffffffffffffffff1673ffffffffffffffffffffffffffffffffffffffff1681526020019081526020016000206000018190555060001515600c600088815260200190815260200160002060030160003373ffffffffffffffffffffffffffffffffffffffff1673ffffffffffffffffffffffffffffffffffffffff16815260200190815260200160002060030160009054906101000a900460ff161515141561409457600c60008781526020019081526020016000206005018054806001018281613fd59190614b45565b9160005260206000209001600033909190916101000a81548173ffffffffffffffffffffffffffffffffffffffff021916908373ffffffffffffffffffffffffffffffffffffffff160217905550506001600c600088815260200190815260200160002060030160003373ffffffffffffffffffffffffffffffffffffffff1673ffffffffffffffffffffffffffffffffffffffff16815260200190815260200160002060030160006101000a81548160ff0219169083151502179055505b6140a787683635c9adc5dea00000614af5565b9450600f600087815260200190815260200160002060003373ffffffffffffffffffffffffffffffffffffffff1673ffffffffffffffffffffffffffffffffffffffff168152602001908152602001600020805490509350600d60008781526020019081526020016000206000015492506005841080156141285750600085115b156142a5578391505b600582101561428957600f600087815260200190815260200160002060003373ffffffffffffffffffffffffffffffffffffffff1673ffffffffffffffffffffffffffffffffffffffff168152602001908152602001600020805480600101828161419c9190614b71565b91600052602060002090016000859091909150555033600e6000888152602001908152602001600020600085806001019650815260200190815260200160002060006101000a81548173ffffffffffffffffffffffffffffffffffffffff021916908373ffffffffffffffffffffffffffffffffffffffff1602179055506005600f600088815260200190815260200160002060003373ffffffffffffffffffffffffffffffffffffffff1673ffffffffffffffffffffffffffffffffffffffff1681526020019081526020016000208054905010151561427c57614289565b8180600101925050614131565b82600d6000888152602001908152602001600020600001819055505b600a60009054906101000a900473ffffffffffffffffffffffffffffffffffffffff1673ffffffffffffffffffffffffffffffffffffffff166323b872dd33308a6000604051602001526040518463ffffffff167c0100000000000000000000000000000000000000000000000000000000028152600401808473ffffffffffffffffffffffffffffffffffffffff1673ffffffffffffffffffffffffffffffffffffffff1681526020018373ffffffffffffffffffffffffffffffffffffffff1673ffffffffffffffffffffffffffffffffffffffff1681526020018281526020019350505050602060405180830381600087803b15156143a657600080fd5b6102c65a03f115156143b757600080fd5b5050506040518051905015156143cc57600080fd5b7fe8f974585656155b2cd9adf2cabc0ad9660a963a15a779b3860348d686694eae338789600c60008b815260200190815260200160002060030160003373ffffffffffffffffffffffffffffffffffffffff1673ffffffffffffffffffffffffffffffffffffffff16815260200190815260200160002060000154604051808573ffffffffffffffffffffffffffffffffffffffff1673ffffffffffffffffffffffffffffffffffffffff16815260200184815260200183815260200182815260200194505050505060405180910390a150505050505050565b8060008114156144b557600080fd5b620546006012600083815260200190815260200160002060010154016144d9611ef1565b10156144e457600080fd5b81600d600082815260200190815260200160002060030160019054906101000a900460ff161561451357600080fd5b60003373ffffffffffffffffffffffffffffffffffffffff16141561453757600080fd5b60001515601160003373ffffffffffffffffffffffffffffffffffffffff1673ffffffffffffffffffffffffffffffffffffffff16815260200190815260200160002060009054906101000a900460ff161515141561459557600080fd5b600b60009054906101000a900473ffffffffffffffffffffffffffffffffffffffff1673ffffffffffffffffffffffffffffffffffffffff1663d63fed51600854600d60006008548152602001908152602001600020600001546000604051602001526040518363ffffffff167c01000000000000000000000000000000000000000000000000000000000281526004018083815260200182815260200192505050602060405180830381600087803b151561465057600080fd5b6102c65a03f1151561466157600080fd5b50505060405180519050151561467657600080fd5b7f72c6276b301b3c3a3effb67916f870c18df000e216ece3a75e4ba469e928138d600854600d6000600854815260200190815260200160002060000154604051808381526020018281526020019250505060405180910390a1505050565b600a60009054906101000a900473ffffffffffffffffffffffffffffffffffffffff1681565b600081600081141561470b57600080fd5b6205460060126000838152602001908152602001600020600101540161472f611ef1565b101561473a57600080fd5b82600d600082815260200190815260200160002060030160019054906101000a900460ff161561476957600080fd5b60003373ffffffffffffffffffffffffffffffffffffffff16141561478d57600080fd5b60001515601160003373ffffffffffffffffffffffffffffffffffffffff1673ffffffffffffffffffffffffffffffffffffffff16815260200190815260200160002060009054906101000a900460ff16151514156147eb57600080fd5b600b60009054906101000a900473ffffffffffffffffffffffffffffffffffffffff1673ffffffffffffffffffffffffffffffffffffffff166375ca23096008546000604051602001526040518263ffffffff167c010000000000000000000000000000000000000000000000000000000002815260040180828152602001915050602060405180830381600087803b151561488657600080fd5b6102c65a03f1151561489757600080fd5b50505060405180519050925082600d6000868152602001908152602001600020600101819055506001600d600086815260200190815260200160002060030160016101000a81548160ff0219169083151502179055507f40b8b189bce79f642c8d9f6e95087ac426fbd7aca394a48bbd8f54c324459ab160085484600e6000888152602001908152602001600020600087815260200190815260200160002060009054906101000a900473ffffffffffffffffffffffffffffffffffffffff16604051808481526020018381526020018273ffffffffffffffffffffffffffffffffffffffff1673ffffffffffffffffffffffffffffffffffffffff168152602001935050505060405180910390a150505050565b60085481565b60095481565b605f81565b600080600080600c6000868152602001908152602001600020600801549250600c6000868152602001908152602001600020600101549150600c600086815260200190815260200160002060030160003373ffffffffffffffffffffffffffffffffffffffff1673ffffffffffffffffffffffffffffffffffffffff168152602001908152602001600020600001549050614a75614a65614a5e8386614ac2565b605f614ac2565b614a70846064614ac2565b614af5565b9350505050919050565b6000808284019050614a9f848210158015614a9a5750838210155b614b36565b8091505092915050565b6000614ab783831115614b36565b818303905092915050565b6000808284029050614aeb6000851480614ae65750838583811515614ae357fe5b04145b614b36565b8091505092915050565b600080614b0460008411614b36565b8284811515614b0f57fe5b049050614b2c8385811515614b2057fe5b06828502018514614b36565b8091505092915050565b801515614b4257600080fd5b50565b815481835581811511614b6c57818360005260206000209182019101614b6b9190614b9d565b5b505050565b815481835581811511614b9857818360005260206000209182019101614b979190614b9d565b5b505050565b614bbf91905b80821115614bbb576000816000905550600101614ba3565b5090565b90565b80600260006101000a81548173ffffffffffffffffffffffffffffffffffffffff021916908373ffffffffffffffffffffffffffffffffffffffff160217905550505600a165627a7a72305820fec0a6477df1393e7124e6d05d0368d8df529078e03354f00de34a766fb0f3690029",
  "source": "pragma solidity ^0.4.8;\r\n\r\nimport '../Libraries/SafeMath.sol';\r\nimport '../Token/AbstractDecentBetToken.sol';\r\nimport './AbstractHouseLottery.sol';\r\nimport '../Betting/AbstractSportsOracle.sol';\r\nimport './HouseOffering.sol';\r\nimport './HouseLottery.sol';\r\nimport '../Libraries/TimeProvider.sol';\r\n\r\n// Decent.bet House Contract.\r\n// All credits and payouts are in DBETs and are 18 decimal places in length.\r\ncontract House is SafeMath, TimeProvider {\r\n\r\n    // Structs\r\n    struct UserCredits {\r\n        uint amount;\r\n        uint liquidated;\r\n        uint rolledOver;\r\n        bool exists;\r\n    }\r\n\r\n    struct HouseFunds {\r\n        // Total funds available to house for this session.\r\n        uint totalFunds;\r\n        // Total credits purchased by users, does not change on liquidation.\r\n        uint totalPurchasedUserCredits;\r\n        // Current credits available to house, will reduce when users liquidate.\r\n        uint totalUserCredits;\r\n        mapping (address => UserCredits) userCredits;\r\n        mapping (address => uint) payouts;\r\n        // Credit holders in the house for this session.\r\n        address[] users;\r\n        // Total DBETs payed out by the house for this session.\r\n        uint totalHousePayouts;\r\n        // Total DBETs withdrawn by the house for this session.\r\n        uint totalWithdrawn;\r\n        // Total profit generate by the house for this session.\r\n        uint profit;\r\n    }\r\n\r\n    struct Session {\r\n        uint startTime;\r\n        uint endTime;\r\n        bool active;\r\n        // Offerings available for this session.\r\n        address[] offerings;\r\n        // Offerings that have been withdrawn from in this session.\r\n        // Must be equal to number of offerings to switch to the next session.\r\n        uint withdrawnOfferings;\r\n        // %age allocation of total tokens for deposit at start of session.\r\n        mapping (address => TokenAllocations) offeringTokenAllocations;\r\n        // Total % of tokens allocated, must be equal before switching to next session.\r\n        uint totalTokensAllocated;\r\n        // Increments by 1 after each deposit to an offering allocation.\r\n        uint depositedAllocations;\r\n    }\r\n\r\n    struct TokenAllocations {\r\n        // Amount allocated to offering.\r\n        uint allocation;\r\n        bool deposited;\r\n    }\r\n\r\n    struct Offering {\r\n        HouseOffering houseOffering;\r\n        bool exists;\r\n    }\r\n\r\n    struct Lottery {\r\n        // Number of tickets allotted.\r\n        uint ticketCount;\r\n        // Winning ticket.\r\n        uint winningTicket;\r\n        // Payout for winning ticket in this session.\r\n        uint payout;\r\n        // Toggled when winnings are claimed.\r\n        bool claimed;\r\n        // Toggled when a winning ticket has been set.\r\n        bool finalized;\r\n    }\r\n\r\n    // Variables\r\n    address public founder;\r\n\r\n    address public houseLotteryAddress;\r\n\r\n    address[] public offeringAddresses;\r\n\r\n    address[] public authorizedAddresses;\r\n\r\n    uint public constant PROFIT_SHARE_PERCENT = 95;\r\n\r\n    bool public isActive = false;\r\n\r\n    // Starting session will be at 0.\r\n    // This would be the credit buying period for the 1st session of the house and lasts only for 1 week.\r\n    uint public currentSession = 0;\r\n\r\n    // Time session 0 begins.\r\n    uint public sessionZeroStartTime = 0;\r\n\r\n    // External Contracts\r\n    AbstractDecentBetToken public decentBetToken;\r\n\r\n    AbstractHouseLottery houseLottery;\r\n\r\n    // Mappings\r\n    // House funds per session\r\n    mapping (uint => HouseFunds) public houseFunds;\r\n\r\n    // Session lottery info.\r\n    mapping (uint => Lottery) public lotteries;\r\n\r\n    // Ticket holders for a session's lottery.\r\n    mapping (uint => mapping(uint => address)) public lotteryTicketHolders;\r\n\r\n    // Number of tickets in session lottery for a user.\r\n    mapping (uint => mapping(address => uint[])) public lotteryUserTickets;\r\n\r\n    // House offerings available for house.\r\n    mapping (address => Offering) offerings;\r\n\r\n    // Authorized addresses.\r\n    mapping (address => bool) public authorized;\r\n\r\n    // Session statistics.\r\n    mapping (uint => Session) public sessions;\r\n\r\n    // Constructor\r\n    function House(address decentBetTokenAddress) {\r\n        if (decentBetTokenAddress == 0) throw;\r\n        founder = msg.sender;\r\n        authorizedAddresses.push(founder);\r\n        authorized[founder] = true;\r\n        decentBetToken = AbstractDecentBetToken(decentBetTokenAddress);\r\n\r\n        // If on local testRPC/testnet and need mock times\r\n        isMock = true;\r\n        setTimeController(msg.sender);\r\n    }\r\n\r\n    // Modifiers //\r\n    modifier onlyFounder() {\r\n        if (msg.sender != founder) throw;\r\n        _;\r\n    }\r\n\r\n    modifier onlyAuthorized() {\r\n        if (msg.sender == 0x0) throw;\r\n        if (authorized[msg.sender] == false) throw;\r\n        _;\r\n    }\r\n\r\n    // Allows functions to execute only if it's currently a credit-buying period i.e\r\n    // 1 week before the end of the current session.\r\n    modifier isCreditBuyingPeriod() {\r\n        if (currentSession == 0 && sessionZeroStartTime == 0) throw;\r\n        if (currentSession != 0 && getTime() < (sessions[currentSession].endTime - 2 weeks) ||\r\n        getTime() > (sessions[currentSession].endTime - 1 weeks)) throw;\r\n        _;\r\n    }\r\n\r\n    // If this is the last week of a session - signifying the period when token deposits can be made to house offerings.\r\n    modifier isLastWeekForSession() {\r\n        if (currentSession == 0 && sessionZeroStartTime == 0) throw;\r\n        if (getTime() < (sessions[currentSession].endTime - 1 weeks) ||\r\n            getTime() > (sessions[currentSession].endTime)) throw;\r\n        _;\r\n    }\r\n\r\n    // Allows functions to execute only if users have \"amount\" tokens in their balance.\r\n    modifier areTokensAvailable(uint amount) {\r\n        if (decentBetToken.balanceOf(msg.sender) < amount) throw;\r\n        _;\r\n    }\r\n\r\n    // Allows functions to execute only if users have purchased credits for the session.\r\n    modifier isUserCreditHolder(uint session) {\r\n        if(!houseFunds[session].userCredits[msg.sender].exists) throw;\r\n        _;\r\n    }\r\n\r\n    // Allows functions to execute only if users have \"amount\" credits available for \"session\".\r\n    modifier areCreditsAvailable(uint session, uint amount) {\r\n        if (houseFunds[session].userCredits[msg.sender].amount < amount) throw;\r\n        _;\r\n    }\r\n\r\n    // Allows functions to execute only if users have rolled over credits available for \"session\".\r\n    modifier areRolledOverCreditsAvailable(uint session) {\r\n        if (houseFunds[session].userCredits[msg.sender].rolledOver == 0) throw;\r\n        _;\r\n    }\r\n\r\n    // Allows functions to execute only if the profit distribution period is going on i.e\r\n    // after the end of the previous session.\r\n    modifier isProfitDistributionPeriod(uint session) {\r\n        if (session == 0) throw;\r\n        if (getTime() < sessions[session].endTime + 4 days) throw;\r\n        _;\r\n    }\r\n\r\n    // Allows functions to execute only if it is the end of the current session.\r\n    modifier isEndOfSession() {\r\n        if (!(currentSession == 0 && sessions[currentSession].endTime == 0)\r\n              && getTime() < sessions[currentSession].endTime) throw;\r\n        _;\r\n    }\r\n\r\n    // Allows functions to execute only if the house offering exists.\r\n    modifier isValidHouseOffering(address offering) {\r\n        if(!offerings[offering].exists) throw;\r\n        _;\r\n    }\r\n\r\n    // Allows functions to execute only if lottery has not been finalized.\r\n    modifier isLotteryNotFinalized(uint session) {\r\n        if(lotteries[session].finalized) throw;\r\n        _;\r\n    }\r\n\r\n    // Events\r\n    event LogPurchasedCredits(address creditHolder, uint session, uint amount, uint balance);\r\n\r\n    event LogLiquidateCredits(address creditHolder, uint session, uint amount, uint payout, uint balance);\r\n\r\n    event LogPayoutRolledOverCredits(address creditHolder, uint session, uint amount, uint payout);\r\n\r\n    event LogRolledOverCredits(address creditHolder, uint session, uint amount);\r\n\r\n    event LogNewSession(uint session, uint startTimestamp, uint startBlockNumber, uint endTimestamp, uint endBlockNumber);\r\n\r\n    event LogNewHouseOffering(address offeringAddress, bytes32 name);\r\n\r\n    event LogPickLotteryWinner(uint session, uint participantCount);\r\n\r\n    event LogWinningTicket(uint session, uint ticketNumber, address _address);\r\n\r\n    event LogOfferingAllocation(uint session, address offering, uint percentage);\r\n\r\n    event LogOfferingDeposit(uint session, address offering, uint percentage, uint amount);\r\n\r\n    // Adds an address to the list of authorized addresses.\r\n    function addToAuthorizedAddresses(address _address)\r\n    onlyFounder {\r\n        authorizedAddresses.push(_address);\r\n        authorized[_address] = true;\r\n    }\r\n\r\n    // Removes an address from the list of authorized addresses.\r\n    function removeFromAuthorizedAddresses(address _address)\r\n    onlyFounder {\r\n        if (authorized[_address] == false) throw;\r\n        for (uint i = 0; i < authorizedAddresses.length; i++) {\r\n            if (authorizedAddresses[i] == _address) {\r\n                delete authorizedAddresses[i];\r\n                authorized[_address] = false;\r\n                break;\r\n            }\r\n        }\r\n    }\r\n\r\n    // Adds a new offering to the house.\r\n    function addHouseOffering(address houseOfferingAddress)\r\n    onlyFounder {\r\n        if(houseOfferingAddress == 0) throw;\r\n        if(!HouseOffering(houseOfferingAddress).isHouseOffering())\r\n            throw;\r\n        uint nextSession = currentSession + 1;\r\n        offeringAddresses.push(houseOfferingAddress);\r\n        offerings[houseOfferingAddress] = Offering({\r\n            houseOffering: HouseOffering(houseOfferingAddress),\r\n            exists: true\r\n        });\r\n        sessions[nextSession].offerings.push(houseOfferingAddress);\r\n        LogNewHouseOffering(houseOfferingAddress, offerings[houseOfferingAddress].houseOffering.name());\r\n    }\r\n\r\n    // Sets the lottery address.\r\n    function setHouseLotteryAddress(address houseLotteryAddress)\r\n    onlyFounder {\r\n        houseLottery = AbstractHouseLottery(houseLotteryAddress);\r\n    }\r\n\r\n    // Transfers DBETs from users to house contract address and generates credits in return.\r\n    // House contract must be approved to transfer amount from msg.sender to house.\r\n    function purchaseCredits(uint amount)\r\n    isCreditBuyingPeriod\r\n    areTokensAvailable(amount)\r\n    {\r\n\r\n        if(decentBetToken.allowance(msg.sender, address(this)) < amount) throw;\r\n\r\n        // Issue credits to user equivalent to amount transferred.\r\n        uint nextSession = safeAdd(currentSession, 1);\r\n\r\n        // Add to house and user funds.\r\n        houseFunds[nextSession].totalFunds =\r\n            safeAdd(houseFunds[nextSession].totalFunds, amount);\r\n        houseFunds[nextSession].totalPurchasedUserCredits =\r\n            safeAdd(houseFunds[nextSession].totalPurchasedUserCredits, amount);\r\n        houseFunds[nextSession].totalUserCredits =\r\n            safeAdd(houseFunds[nextSession].totalUserCredits, amount);\r\n        houseFunds[nextSession].userCredits[msg.sender].amount =\r\n            safeAdd(houseFunds[nextSession].userCredits[msg.sender].amount, amount);\r\n\r\n        // Add user to house users array for UI iteration purposes.\r\n        if (houseFunds[nextSession].userCredits[msg.sender].exists == false) {\r\n            houseFunds[nextSession].users.push(msg.sender);\r\n            houseFunds[nextSession].userCredits[msg.sender].exists = true;\r\n        }\r\n\r\n        uint numberOfTickets = safeDiv(amount, 1000 ether);\r\n        uint userTicketCount = lotteryUserTickets[nextSession][msg.sender].length;\r\n        uint ticketCount = lotteries[nextSession].ticketCount;\r\n\r\n        // Allot lottery tickets for credit holders.\r\n        if (userTicketCount < 5 && numberOfTickets > 0) {\r\n            for (uint i = userTicketCount; i < 5; i++) {\r\n                lotteryUserTickets[nextSession][msg.sender].push(ticketCount);\r\n                lotteryTicketHolders[nextSession][ticketCount++] = msg.sender;\r\n                if (lotteryUserTickets[nextSession][msg.sender].length >= 5)\r\n                    break;\r\n            }\r\n            lotteries[nextSession].ticketCount = ticketCount;\r\n        }\r\n\r\n        // Transfer tokens to house contract address.\r\n        if (!decentBetToken.transferFrom(msg.sender, address(this), amount)) throw;\r\n\r\n        LogPurchasedCredits(msg.sender, nextSession, amount, houseFunds[nextSession].userCredits[msg.sender].amount);\r\n    }\r\n\r\n    // Allows users to return credits and receive tokens along with profit in return.\r\n    function liquidateCredits(uint session, uint amount)\r\n    isUserCreditHolder(session)\r\n    areCreditsAvailable(session, amount)\r\n    isProfitDistributionPeriod(session) {\r\n\r\n        // Payout variables\r\n        uint payoutPerCredit = getPayoutPerCredit(session);\r\n        // (Payout per credit * amount of credits) + amount of credits\r\n        uint payout = safeAdd(safeMul(payoutPerCredit, amount), amount);\r\n\r\n        // Payout users for current session and liquidate credits.\r\n        houseFunds[session].payouts[msg.sender] =\r\n            safeAdd(houseFunds[session].payouts[msg.sender], payout);\r\n        houseFunds[session].totalUserCredits =\r\n            safeSub(houseFunds[session].totalUserCredits, amount);\r\n        houseFunds[session].userCredits[msg.sender].amount =\r\n            safeSub(houseFunds[session].userCredits[msg.sender].amount, amount);\r\n        houseFunds[session].userCredits[msg.sender].liquidated =\r\n            safeAdd(houseFunds[session].userCredits[msg.sender].liquidated, amount);\r\n        houseFunds[session].totalHousePayouts =\r\n            safeAdd(houseFunds[session].totalHousePayouts, payout);\r\n\r\n        // Transfers from house to user.\r\n        if (!decentBetToken.transfer(msg.sender, payout)) throw;\r\n\r\n        LogLiquidateCredits(msg.sender, session, amount, payout, houseFunds[session].userCredits[msg.sender].amount);\r\n    }\r\n\r\n    // Claim profit share from credits that were rolled over to the next session\r\n    function payoutRolledOverCredits(uint session)\r\n    isUserCreditHolder(session)\r\n    areRolledOverCreditsAvailable(session)\r\n    isProfitDistributionPeriod(session) {\r\n        // Calculate payout for rolled over credit.\r\n        uint payoutPerCredit = getPayoutPerCredit(session);\r\n        uint rolledOver = houseFunds[session].userCredits[msg.sender].rolledOver;\r\n        uint payout = safeMul(payoutPerCredit, rolledOver);\r\n\r\n        // Liquidate all rolled over credits to 0.\r\n        houseFunds[session].userCredits[msg.sender].rolledOver = 0;\r\n\r\n        if(!decentBetToken.transfer(msg.sender, payout)) throw;\r\n\r\n        LogPayoutRolledOverCredits(msg.sender, session, rolledOver, payout);\r\n    }\r\n\r\n    // Returns the payout per credit based on the house winnings for a session.\r\n    function getPayoutPerCredit(uint session) returns (uint) {\r\n\r\n        uint sessionProfit = houseFunds[session].profit;\r\n        uint totalPurchasedUserCredits = houseFunds[session].totalPurchasedUserCredits;\r\n        uint userCredits = houseFunds[session].userCredits[msg.sender].amount;\r\n\r\n        // ((User Credits / Total User Credits) * Session profits) * PROFIT_SHARE_PERCENT/100;\r\n        return safeDiv(safeMul(safeMul(userCredits, sessionProfit), PROFIT_SHARE_PERCENT),\r\n        safeMul(totalPurchasedUserCredits, 100));\r\n    }\r\n\r\n    // Allows users holding credits in the current session to roll over their credits to the\r\n    // next session.\r\n    function rollOverCredits(uint amount)\r\n    isUserCreditHolder(currentSession)\r\n    areCreditsAvailable(currentSession, amount)\r\n    isCreditBuyingPeriod {\r\n\r\n        if (currentSession == 0) throw;\r\n\r\n        // Payout and current session variables.\r\n        uint credits = houseFunds[currentSession].userCredits[msg.sender].amount;\r\n\r\n        // Next session variables.\r\n        uint nextSession = safeAdd(currentSession, 1);\r\n        uint totalUserCreditsForNextSession = houseFunds[nextSession].userCredits[msg.sender].amount;\r\n\r\n        // Rollover credits from current session to next.\r\n        houseFunds[currentSession].userCredits[msg.sender].amount = safeSub(credits, amount);\r\n        houseFunds[currentSession].userCredits[msg.sender].rolledOver = safeAdd(credits, amount);\r\n\r\n        // Add to credits for next session.\r\n        houseFunds[nextSession].userCredits[msg.sender].amount = safeAdd(totalUserCreditsForNextSession, amount);\r\n        houseFunds[nextSession].totalPurchasedUserCredits = safeAdd(houseFunds[nextSession].totalUserCredits, amount);\r\n        houseFunds[nextSession].totalFunds = safeAdd(houseFunds[nextSession].totalFunds, amount);\r\n\r\n        LogRolledOverCredits(msg.sender, currentSession, amount);\r\n    }\r\n\r\n    // Withdraws session tokens for the previously ended session from a house offering.\r\n    function withdrawPreviousSessionTokensFromHouseOffering(address houseOffering)\r\n    isValidHouseOffering(houseOffering)\r\n    onlyAuthorized {\r\n        uint previousSession = currentSession - 1;\r\n        // Withdrawals are only allowed after session 1.\r\n        if(currentSession <= 1) throw;\r\n\r\n        // Tokens can only be withdrawn from offerings by house 48h after the previous session has ended to account\r\n        // for pending bets/game outcomes.\r\n\r\n        if(getTime() < sessions[previousSession].endTime + 2 days) throw;\r\n\r\n        uint previousSessionTokens = offerings[houseOffering].houseOffering.balanceOf(address(this), previousSession);\r\n\r\n        houseFunds[previousSession].totalWithdrawn =\r\n        safeAdd(houseFunds[previousSession].totalWithdrawn, previousSessionTokens);\r\n\r\n        sessions[previousSession].withdrawnOfferings = safeAdd(sessions[previousSession].withdrawnOfferings, 1);\r\n\r\n        // All offerings have been withdrawn.\r\n        if(sessions[previousSession].withdrawnOfferings == sessions[previousSession].offerings.length) {\r\n            houseFunds[previousSession].profit =\r\n            safeSub(houseFunds[previousSession].totalWithdrawn, houseFunds[previousSession].totalFunds);\r\n        }\r\n\r\n        // Withdraw from previous session\r\n        if(!offerings[houseOffering].houseOffering.withdrawPreviousSessionTokens()) throw;\r\n    }\r\n\r\n    // Allocates a %age of tokens for a house offering for the next session\r\n    function allocateTokensForHouseOffering(uint percentage, address houseOffering)\r\n    isCreditBuyingPeriod\r\n    isValidHouseOffering(houseOffering)\r\n    onlyAuthorized {\r\n        uint nextSession = currentSession + 1;\r\n\r\n        // Total %age of tokens can't be above 100.\r\n        if(safeAdd(sessions[nextSession].totalTokensAllocated, percentage) > 100) throw;\r\n\r\n        // Tokens have already been deposited to offering.\r\n        if(sessions[nextSession].offeringTokenAllocations[houseOffering].deposited) throw;\r\n\r\n        uint previousAllocation = sessions[nextSession].offeringTokenAllocations[houseOffering].allocation;\r\n\r\n        sessions[nextSession].offeringTokenAllocations[houseOffering].allocation = percentage;\r\n        sessions[nextSession].totalTokensAllocated =\r\n            safeSub(safeAdd(sessions[nextSession].totalTokensAllocated, percentage), previousAllocation);\r\n\r\n        LogOfferingAllocation(nextSession, houseOffering, percentage);\r\n    }\r\n\r\n    function depositAllocatedTokensToHouseOffering(address houseOffering)\r\n    isLastWeekForSession\r\n    isValidHouseOffering(houseOffering)\r\n    onlyAuthorized {\r\n        uint nextSession = currentSession + 1;\r\n\r\n        // Tokens have already been deposited to offering.\r\n        if(sessions[nextSession].offeringTokenAllocations[houseOffering].deposited) throw;\r\n\r\n        uint allocation = sessions[nextSession].offeringTokenAllocations[houseOffering].allocation;\r\n\r\n        uint tokenAmount = safeDiv(safeMul(houseFunds[nextSession].totalFunds, allocation), 100);\r\n\r\n        sessions[nextSession].offeringTokenAllocations[houseOffering].deposited = true;\r\n        sessions[nextSession].depositedAllocations = safeAdd(sessions[nextSession].depositedAllocations, 1);\r\n\r\n        if(!decentBetToken.approve(houseOffering, tokenAmount)) throw;\r\n\r\n        if(!offerings[houseOffering].houseOffering.houseDeposit(tokenAmount, nextSession)) throw;\r\n\r\n        LogOfferingDeposit(nextSession, houseOffering, allocation, tokenAmount);\r\n    }\r\n\r\n    // Get house lottery to retrieve random ticket winner using oraclize as RNG.\r\n    function pickLotteryWinner(uint session)\r\n    isProfitDistributionPeriod(session)\r\n    isLotteryNotFinalized(session)\r\n    onlyAuthorized payable {\r\n        // TODO: Send with ether value to fund oraclize\r\n        if(!houseLottery.pickWinner(currentSession, lotteries[currentSession].ticketCount)) throw;\r\n        LogPickLotteryWinner(currentSession, lotteries[currentSession].ticketCount);\r\n    }\r\n\r\n    // Called after oraclize has updated lottery winner.\r\n    function updateWinningLotteryTicket(uint session)\r\n    isProfitDistributionPeriod(session)\r\n    isLotteryNotFinalized(session)\r\n    onlyAuthorized {\r\n        uint winningTicket = houseLottery.getWinningLotteryTicket(currentSession);\r\n        lotteries[session].winningTicket = winningTicket;\r\n        lotteries[session].finalized = true;\r\n        LogWinningTicket(currentSession, winningTicket, lotteryTicketHolders[session][winningTicket]);\r\n    }\r\n\r\n    // Allows a winner to withdraw lottery winnings.\r\n    function withdrawLotteryWinnings(uint session)\r\n    isProfitDistributionPeriod(session) {\r\n        // Should only work after the winning number has been finalized.\r\n        if(!lotteries[session].finalized) throw;\r\n        // Should not work if winnings have already been claimed.\r\n        if(lotteries[session].claimed) throw;\r\n        // Only holder of the winning ticket can withdraw.\r\n        if(lotteryTicketHolders[session][lotteries[session].winningTicket] != msg.sender) throw;\r\n\r\n        uint payoutPerCredit = getPayoutPerCredit(session);\r\n        uint lotteryPayout = safeDiv(safeMul(houseFunds[session].totalPurchasedUserCredits, 5), 100);\r\n\r\n        lotteries[session].payout = lotteryPayout;\r\n        lotteries[session].claimed = true;\r\n\r\n        if(!decentBetToken.transfer(msg.sender, lotteryPayout)) throw;\r\n    }\r\n\r\n    // Starts the next session.\r\n    // Call this function once after setting up the house to begin the initial credit buying period.\r\n    function beginNextSession()\r\n    isEndOfSession\r\n    onlyAuthorized {\r\n        uint nextSession = safeAdd(currentSession, 1);\r\n        sessions[currentSession].active = false;\r\n        if (currentSession == 0 && sessionZeroStartTime == 0) {\r\n            // Session zero starts here and allows users to buy credits for a week before starting session 1.\r\n            sessionZeroStartTime = getTime();\r\n            sessions[currentSession].startTime = getTime();\r\n            // TODO: Change to 2 weeks for prod\r\n            sessions[currentSession].endTime = safeAdd(sessions[currentSession].startTime, 2 weeks);\r\n\r\n            LogNewSession(currentSession, sessions[currentSession].startTime, 0, sessions[currentSession].endTime, 0);\r\n        } else {\r\n            sessions[nextSession].startTime = getTime();\r\n            sessions[nextSession].endTime = safeAdd(sessions[nextSession].startTime, 12 weeks);\r\n            // For a session to be considered active, getTime() would need to be between startTime and endTime\r\n            // AND session should be active.\r\n            sessions[nextSession].active = true;\r\n            currentSession = nextSession;\r\n\r\n            // All offerings should have allocated tokens deposited before switching to next session.\r\n            if(sessions[nextSession].depositedAllocations != sessions[nextSession].offerings.length) throw;\r\n\r\n            for(uint i = 0; i < offeringAddresses.length; i++)\r\n            offerings[offeringAddresses[i]].houseOffering.setSession(nextSession);\r\n\r\n            LogNewSession(nextSession, sessions[nextSession].startTime, 0, sessions[nextSession].endTime, 0);\r\n        }\r\n    }\r\n\r\n    // Utility functions for front-end purposes.\r\n    function getUserCreditsForSession(uint session, address _address) constant\r\n    returns (uint amount, uint liquidated, uint rolledOver, bool exists) {\r\n        return (houseFunds[session].userCredits[_address].amount,\r\n                houseFunds[session].userCredits[_address].liquidated,\r\n                houseFunds[session].userCredits[_address].rolledOver,\r\n                houseFunds[session].userCredits[_address].exists);\r\n    }\r\n\r\n    function getUserForSession(uint session, uint index) constant returns (address _address) {\r\n        return houseFunds[session].users[index];\r\n    }\r\n\r\n    function getOfferingTokenAllocations(uint session, address _address) constant returns (uint, bool) {\r\n        return (sessions[session].offeringTokenAllocations[_address].allocation,\r\n                sessions[session].offeringTokenAllocations[_address].deposited);\r\n    }\r\n\r\n    // Do not accept ETH sent to this contract.\r\n    function() {\r\n        throw;\r\n    }\r\n\r\n}",
  "sourcePath": "C:\\truffle\\decent-bet\\contracts\\House\\House.sol",
  "compiler": {
    "name": "solc",
    "version": "0.4.18+commit.9cf6e910.Emscripten.clang"
  },
  "schemaVersion": "1.0.1",
  "updatedAt": "2017-12-08T17:44:15.800Z"
}