{
  "contractName": "SlotsHelper",
  "abi": [
    {
      "constant": false,
      "inputs": [
        {
          "name": "self",
          "type": "string"
        },
        {
          "name": "startIndex",
          "type": "uint256"
        }
      ],
      "name": "toBytes32",
      "outputs": [
        {
          "name": "b",
          "type": "bytes32"
        }
      ],
      "payable": false,
      "stateMutability": "nonpayable",
      "type": "function"
    },
    {
      "constant": true,
      "inputs": [],
      "name": "isSlotsHelper",
      "outputs": [
        {
          "name": "",
          "type": "bool"
        }
      ],
      "payable": false,
      "stateMutability": "view",
      "type": "function"
    },
    {
      "constant": false,
      "inputs": [
        {
          "name": "_string",
          "type": "string"
        }
      ],
      "name": "strLen",
      "outputs": [
        {
          "name": "",
          "type": "uint256"
        }
      ],
      "payable": false,
      "stateMutability": "nonpayable",
      "type": "function"
    },
    {
      "constant": true,
      "inputs": [
        {
          "name": "x",
          "type": "bytes32"
        }
      ],
      "name": "bytes32ToString",
      "outputs": [
        {
          "name": "",
          "type": "string"
        }
      ],
      "payable": false,
      "stateMutability": "view",
      "type": "function"
    },
    {
      "constant": true,
      "inputs": [
        {
          "name": "v",
          "type": "uint256"
        }
      ],
      "name": "uintToBytes",
      "outputs": [
        {
          "name": "ret",
          "type": "bytes32"
        }
      ],
      "payable": false,
      "stateMutability": "view",
      "type": "function"
    },
    {
      "constant": false,
      "inputs": [
        {
          "name": "reel",
          "type": "string"
        }
      ],
      "name": "convertReelToArray",
      "outputs": [
        {
          "name": "",
          "type": "uint256[5]"
        }
      ],
      "payable": false,
      "stateMutability": "nonpayable",
      "type": "function"
    },
    {
      "constant": false,
      "inputs": [
        {
          "name": "betSize",
          "type": "uint256"
        },
        {
          "name": "reelArray",
          "type": "uint256[5]"
        }
      ],
      "name": "getTotalReward",
      "outputs": [
        {
          "name": "",
          "type": "uint256"
        }
      ],
      "payable": false,
      "stateMutability": "nonpayable",
      "type": "function"
    },
    {
      "constant": false,
      "inputs": [
        {
          "name": "char",
          "type": "bytes1"
        }
      ],
      "name": "toByte",
      "outputs": [
        {
          "name": "c",
          "type": "bytes1"
        }
      ],
      "payable": false,
      "stateMutability": "nonpayable",
      "type": "function"
    },
    {
      "constant": false,
      "inputs": [
        {
          "name": "b",
          "type": "bool"
        }
      ],
      "name": "boolToString",
      "outputs": [
        {
          "name": "",
          "type": "string"
        }
      ],
      "payable": false,
      "stateMutability": "nonpayable",
      "type": "function"
    },
    {
      "constant": false,
      "inputs": [
        {
          "name": "s",
          "type": "string"
        },
        {
          "name": "index",
          "type": "uint256"
        }
      ],
      "name": "getCharAt",
      "outputs": [
        {
          "name": "",
          "type": "string"
        }
      ],
      "payable": false,
      "stateMutability": "nonpayable",
      "type": "function"
    },
    {
      "constant": false,
      "inputs": [
        {
          "name": "s1",
          "type": "string"
        },
        {
          "name": "s2",
          "type": "string"
        }
      ],
      "name": "strCompare",
      "outputs": [
        {
          "name": "",
          "type": "bool"
        }
      ],
      "payable": false,
      "stateMutability": "nonpayable",
      "type": "function"
    },
    {
      "constant": false,
      "inputs": [
        {
          "name": "n",
          "type": "uint256"
        }
      ],
      "name": "uintToString",
      "outputs": [
        {
          "name": "",
          "type": "string"
        }
      ],
      "payable": false,
      "stateMutability": "nonpayable",
      "type": "function"
    },
    {
      "constant": false,
      "inputs": [
        {
          "name": "b",
          "type": "bytes32"
        }
      ],
      "name": "bytes32ToBool",
      "outputs": [
        {
          "name": "",
          "type": "bool"
        }
      ],
      "payable": false,
      "stateMutability": "nonpayable",
      "type": "function"
    },
    {
      "inputs": [],
      "payable": false,
      "stateMutability": "nonpayable",
      "type": "constructor"
    }
  ],
  "bytecode": "0x606060405260016000806101000a81548160ff0219169083151502179055506001600760006101000a81548160ff021916908360ff1602179055506002600760016101000a81548160ff021916908360ff1602179055506003600760026101000a81548160ff021916908360ff1602179055506004600760036101000a81548160ff021916908360ff1602179055506005600760046101000a81548160ff021916908360ff1602179055506006600760056101000a81548160ff021916908360ff16021790555060078060066101000a81548160ff021916908360ff1602179055503415620000ed57600080fd5b6200010b6200012f640100000000026200212f176401000000009004565b62000129620006306401000000000262002621176401000000009004565b62000834565b6102a060405190810160405280600760ff168152602001600260ff168152602001600260ff168152602001600160ff168152602001600560ff168152602001600360ff168152602001600560ff168152602001600360ff168152602001600260ff168152602001600260ff168152602001600360ff168152602001600460ff168152602001600260ff168152602001600560ff168152602001600160ff168152602001600160ff168152602001600660ff168152602001600460ff168152602001600160ff168152602001600560ff168152602001600360ff16815250600160006005811015156200021d57fe5b019060156200022e92919062000760565b506102a060405190810160405280600160ff168152602001600160ff168152602001600360ff168152602001600360ff168152602001600560ff168152602001600360ff168152602001600560ff168152602001600160ff168152602001600260ff168152602001600260ff168152602001600460ff168152602001600160ff168152602001600360ff168152602001600460ff168152602001600360ff168152602001600260ff168152602001600260ff168152602001600660ff168152602001600660ff168152602001600360ff168152602001600760ff168152506001806005811015156200031c57fe5b019060156200032d92919062000760565b506102a060405190810160405280600460ff168152602001600260ff168152602001600760ff168152602001600360ff168152602001600260ff168152602001600660ff168152602001600160ff168152602001600460ff168152602001600360ff168152602001600160ff168152602001600560ff168152602001600160ff168152602001600160ff168152602001600460ff168152602001600460ff168152602001600160ff168152602001600560ff168152602001600260ff168152602001600260ff168152602001600160ff168152602001600160ff16815250600160026005811015156200041c57fe5b019060156200042d92919062000760565b506102a060405190810160405280600160ff168152602001600160ff168152602001600560ff168152602001600160ff168152602001600260ff168152602001600760ff168152602001600460ff168152602001600260ff168152602001600160ff168152602001600360ff168152602001600260ff168152602001600260ff168152602001600360ff168152602001600160ff168152602001600160ff168152602001600260ff168152602001600660ff168152602001600260ff168152602001600660ff168152602001600360ff168152602001600560ff16815250600160036005811015156200051c57fe5b019060156200052d92919062000760565b506102a060405190810160405280600160ff168152602001600460ff168152602001600160ff168152602001600160ff168152602001600260ff168152602001600460ff168152602001600160ff168152602001600360ff168152602001600660ff168152602001600260ff168152602001600760ff168152602001600260ff168152602001600460ff168152602001600160ff168152602001600360ff168152602001600160ff168152602001600360ff168152602001600660ff168152602001600160ff168152602001600260ff168152602001600560ff16815250600160046005811015156200061c57fe5b019060156200062d92919062000760565b50565b600a60066000600760009054906101000a900460ff1660ff16815260200190815260200160002081905550601460066000600760019054906101000a900460ff1660ff16815260200190815260200160002081905550602860066000600760029054906101000a900460ff1660ff16815260200190815260200160002081905550603260066000600760039054906101000a900460ff1660ff16815260200190815260200160002081905550604b60066000600760049054906101000a900460ff1660ff16815260200190815260200160002081905550609660066000600760059054906101000a900460ff1660ff1681526020019081526020016000208190555061012c60066000600760069054906101000a900460ff1660ff16815260200190815260200160002081905550565b826015601f01602090048101928215620007ee5791602002820160005b83821115620007bd57835183826101000a81548160ff021916908360ff16021790555092602001926001016020816000010492830192600103026200077d565b8015620007ec5782816101000a81549060ff0219169055600101602081600001049283019260010302620007bd565b505b509050620007fd919062000801565b5090565b6200083191905b808211156200082d57600081816101000a81549060ff02191690555060010162000808565b5090565b90565b61284780620008446000396000f3006060604052600436106100c5576000357c0100000000000000000000000000000000000000000000000000000000900463ffffffff1680630af70aee146100ca57806358c602a81461014c57806370d16127146101795780639201de55146101ea57806394e8767d1461028a5780639b3dd266146102c9578063aa534bf714610362578063b89783aa146103c5578063e665919714610462578063e74b666a14610500578063e8641652146105df578063e939567914610697578063f7302d7b14610733575b600080fd5b34156100d557600080fd5b61012e600480803590602001908201803590602001908080601f01602080910402602001604051908101604052809392919081815260200183838082843782019150505050505091908035906020019091905050610772565b60405180826000191660001916815260200191505060405180910390f35b341561015757600080fd5b61015f610847565b604051808215151515815260200191505060405180910390f35b341561018457600080fd5b6101d4600480803590602001908201803590602001908080601f01602080910402602001604051908101604052809392919081815260200183838082843782019150505050505091905050610859565b6040518082815260200191505060405180910390f35b34156101f557600080fd5b61020f600480803560001916906020019091905050610873565b6040518080602001828103825283818151815260200191508051906020019080838360005b8381101561024f578082015181840152602081019050610234565b50505050905090810190601f16801561027c5780820380516001836020036101000a031916815260200191505b509250505060405180910390f35b341561029557600080fd5b6102ab6004808035906020019091905050610a60565b60405180826000191660001916815260200191505060405180910390f35b34156102d457600080fd5b610324600480803590602001908201803590602001908080601f01602080910402602001604051908101604052809392919081815260200183838082843782019150505050505091905050610b09565b6040518082600560200280838360005b8381101561034f578082015181840152602081019050610334565b5050505090500191505060405180910390f35b341561036d57600080fd5b6103af6004808035906020019091908060a001906005806020026040519081016040528092919082600560200280828437820191505050505091905050610c3a565b6040518082815260200191505060405180910390f35b34156103d057600080fd5b61040860048080357effffffffffffffffffffffffffffffffffffffffffffffffffffffffffffff1916906020019091905050610cb2565b60405180827effffffffffffffffffffffffffffffffffffffffffffffffffffffffffffff19167effffffffffffffffffffffffffffffffffffffffffffffffffffffffffffff1916815260200191505060405180910390f35b341561046d57600080fd5b61048560048080351515906020019091905050610d84565b6040518080602001828103825283818151815260200191508051906020019080838360005b838110156104c55780820151818401526020810190506104aa565b50505050905090810190601f1680156104f25780820380516001836020036101000a031916815260200191505b509250505060405180910390f35b341561050b57600080fd5b610564600480803590602001908201803590602001908080601f01602080910402602001604051908101604052809392919081815260200183838082843782019150505050505091908035906020019091905050610e26565b6040518080602001828103825283818151815260200191508051906020019080838360005b838110156105a4578082015181840152602081019050610589565b50505050905090810190601f1680156105d15780820380516001836020036101000a031916815260200191505b509250505060405180910390f35b34156105ea57600080fd5b61067d600480803590602001908201803590602001908080601f0160208091040260200160405190810160405280939291908181526020018383808284378201915050505050509190803590602001908201803590602001908080601f01602080910402602001604051908101604052809392919081815260200183838082843782019150505050505091905050610f16565b604051808215151515815260200191505060405180910390f35b34156106a257600080fd5b6106b86004808035906020019091905050610f4b565b6040518080602001828103825283818151815260200191508051906020019080838360005b838110156106f85780820151818401526020810190506106dd565b50505050905090810190601f1680156107255780820380516001836020036101000a031916815260200191505b509250505060405180910390f35b341561073e57600080fd5b610758600480803560001916906020019091905050610f71565b604051808215151515815260200191505060405180910390f35b60008061077d6120c5565b60006020925061078e868685610fad565b9150600090505b8281101561083e5780600184030360080260020a82828151811015156107b757fe5b9060200101517f010000000000000000000000000000000000000000000000000000000000000090047f0100000000000000000000000000000000000000000000000000000000000000027f010000000000000000000000000000000000000000000000000000000000000090040284600190040160010293508080600101915050610795565b50505092915050565b6000809054906101000a900460ff1681565b600061086c610867836111cb565b6111f9565b9050919050565b61087b6120d9565b6108836120c5565b60008060006108906120c5565b602060405180591061089f5750595b9080825280601f01601f1916602001820160405250945060009350600092505b602083101561097d578260080260020a876001900402600102915060007f010000000000000000000000000000000000000000000000000000000000000002827effffffffffffffffffffffffffffffffffffffffffffffffffffffffffffff19161415156109705781858581518110151561093757fe5b9060200101907effffffffffffffffffffffffffffffffffffffffffffffffffffffffffffff1916908160001a90535083806001019450505b82806001019350506108bf565b8360405180591061098b5750595b9080825280601f01601f19166020018201604052509050600092505b83831015610a535784838151811015156109bd57fe5b9060200101517f010000000000000000000000000000000000000000000000000000000000000090047f0100000000000000000000000000000000000000000000000000000000000000028184815181101515610a1657fe5b9060200101907effffffffffffffffffffffffffffffffffffffffffffffffffffffffffffff1916908160001a90535082806001019350506109a7565b8095505050505050919050565b600080821415610a92577f30000000000000000000000000000000000000000000000000000000000000009050610b01565b5b6000821115610b00576101008160019004811515610aad57fe5b0460010290507f01000000000000000000000000000000000000000000000000000000000000006030600a84811515610ae257fe5b06010260010281179050600a82811515610af857fe5b049150610a93565b5b809050919050565b610b116120ed565b610b196120ed565b610b216120d9565b600080610b2c6120d9565b6020604051908101604052806000815250935060009250600091505b610b5187610859565b8260ff161015610c0a57610b68878360ff16610e26565b9050610ba9816040805190810160405280600181526020017f2c00000000000000000000000000000000000000000000000000000000000000815250610f16565b1515610bc057610bb984826112bf565b9350610bfd565b610bc98461130c565b858480600101955060ff16600581101515610be057fe5b602002018181525050602060405190810160405280600081525093505b8180600101925050610b48565b610c138461130c565b858460ff16600581101515610c2457fe5b6020020181815250508495505050505050919050565b60008060008060009250610c5686670de0b6b3a7640000611320565b9150600090505b818160ff161015610c9257610c8383610c7e610c798489611361565b611708565b6117d4565b92508080600101915050610c5d565b610ca483670de0b6b3a76400006117fe565b925082935050505092915050565b60006057827f0100000000000000000000000000000000000000000000000000000000000000900460ff161115610d33576057827f01000000000000000000000000000000000000000000000000000000000000009004037f0100000000000000000000000000000000000000000000000000000000000000029050610d7f565b6030827f01000000000000000000000000000000000000000000000000000000000000009004037f01000000000000000000000000000000000000000000000000000000000000000290505b919050565b610d8c6120d9565b600115158215151415610dd6576040805190810160405280600481526020017f74727565000000000000000000000000000000000000000000000000000000008152509050610e21565b600015158215151415610e20576040805190810160405280600581526020017f66616c73650000000000000000000000000000000000000000000000000000008152509050610e21565b5b919050565b610e2e6120d9565b610e366120c5565b610e3e6120d9565b610e466120c5565b8592506001604051805910610e585750595b9080825280601f01601f191660200182016040525091508190508285815181101515610e8057fe5b9060200101517f010000000000000000000000000000000000000000000000000000000000000090047f010000000000000000000000000000000000000000000000000000000000000002816000815181101515610eda57fe5b9060200101907effffffffffffffffffffffffffffffffffffffffffffffffffffffffffffff1916908160001a90535080935050505092915050565b600080610f3c610f25846111cb565b610f2e866111cb565b61183190919063ffffffff16565b90506000811491505092915050565b610f536120d9565b6000610f5e83610a60565b9050610f6981610873565b915050919050565b60008060010282600019161415610f8b5760009050610fa8565b6001800282600019161415610fa35760019050610fa8565b600080fd5b919050565b610fb56120c5565b610fbd6120c5565b610fc56120c5565b600080600088945086604051805910610fdb5750595b9080825280601f01601f1916602001820160405250935060028702888651031061100a5760028702880161100f565b878551035b92508791505b828210156111bc57878203905060028181151561102e57fe5b0660010360100a611096868481518110151561104657fe5b9060200101517f010000000000000000000000000000000000000000000000000000000000000090047f010000000000000000000000000000000000000000000000000000000000000002610cb2565b7f0100000000000000000000000000000000000000000000000000000000000000900402846002838115156110c757fe5b048151811015156110d457fe5b9060200101517f010000000000000000000000000000000000000000000000000000000000000090047f0100000000000000000000000000000000000000000000000000000000000000027f01000000000000000000000000000000000000000000000000000000000000009004017f0100000000000000000000000000000000000000000000000000000000000000028460028381151561117257fe5b0481518110151561117f57fe5b9060200101907effffffffffffffffffffffffffffffffffffffffffffffffffffffffffffff1916908160001a9053508180600101925050611015565b83955050505050509392505050565b6111d3612115565b600060208301905060408051908101604052808451815260200182815250915050919050565b6000806000806000601f8660200151039350856000015184019250600091505b828410156112b35760ff845116905060808160ff16101561123f576001840193506112a6565b60e08160ff161015611256576002840193506112a5565b60f08160ff16101561126d576003840193506112a4565b60f88160ff161015611284576004840193506112a3565b60fc8160ff16101561129b576005840193506112a2565b6006840193505b5b5b5b5b8180600101925050611219565b81945050505050919050565b6112c76120d9565b61130483836020604051908101604052806000815250602060405190810160405280600081525060206040519081016040528060008152506118eb565b905092915050565b6000611319826000611d23565b9050919050565b60008061132f6000841161201d565b828481151561133a57fe5b049050611357838581151561134b57fe5b0682850201851461201d565b8091505092915050565b6113696120ed565b60006113736120ed565b6000915060008560ff1614156113e257600091505b60058260ff1610156113dd576113b382858460ff166005811015156113a957fe5b602002015161202c565b60ff16818360ff166005811015156113c757fe5b6020020181815250508180600101925050611388565b6116fd565b60018560ff16141561145057600091505b60058260ff16101561144b57611421826001868560ff1660058110151561141657fe5b60200201510361202c565b60ff16818360ff1660058110151561143557fe5b60200201818152505081806001019250506113f3565b6116fc565b60028560ff1614156114be57600091505b60058260ff1610156114b95761148f826001868560ff1660058110151561148457fe5b60200201510161202c565b60ff16818360ff166005811015156114a357fe5b6020020181815250508180600101925050611461565b6116fb565b60038560ff1614156115d957600091505b60058260ff1610156115d45760008260ff1614806114f0575060048260ff16145b1561153957611517826001868560ff1660058110151561150c57fe5b60200201510361202c565b60ff16818360ff1660058110151561152b57fe5b6020020181815250506115c7565b60028260ff16141561158957611567826001868560ff1660058110151561155c57fe5b60200201510161202c565b60ff16818360ff1660058110151561157b57fe5b6020020181815250506115c6565b6115a882858460ff1660058110151561159e57fe5b602002015161202c565b60ff16818360ff166005811015156115bc57fe5b6020020181815250505b5b81806001019250506114cf565b6116fa565b60048560ff1614156116f457600091505b60058260ff1610156116ef5760008260ff16148061160b575060048260ff16145b1561165457611632826001868560ff1660058110151561162757fe5b60200201510161202c565b60ff16818360ff1660058110151561164657fe5b6020020181815250506116e2565b60028260ff1614156116a457611682826001868560ff1660058110151561167757fe5b60200201510361202c565b60ff16818360ff1660058110151561169657fe5b6020020181815250506116e1565b6116c382858460ff166005811015156116b957fe5b602002015161202c565b60ff16818360ff166005811015156116d757fe5b6020020181815250505b5b81806001019250506115ea565b6116f9565b600080fd5b5b5b5b5b809250505092915050565b6000806000806000925060009150600190505b60058160ff1611151561177c57846001820360ff1660058110151561173c57fe5b6020020151858260ff1660058110151561175257fe5b6020020151141561176a57828060010193505061176f565b61177c565b808060010191505061171b565b60038360ff161015156117c9576117c66006600087600060058110151561179f57fe5b60200201518152602001908152602001600020546117c18560ff1660026120ac565b6117fe565b91505b819350505050919050565b60008082840190506117f48482101580156117ef5750838210155b61201d565b8091505092915050565b60008082840290506118276000851480611822575083858381151561181f57fe5b04145b61201d565b8091505092915050565b60008060008060008060008060008a6000015197508a600001518a60000151101561185e57896000015197505b8a60200151965089602001519550600094505b878510156118cf57865193508551925082841415156118b857600185896020030160080260020a031991508183168285160390506000811415156118b7578098506118dd565b5b602087019650602086019550602085019450611871565b89600001518b600001510398505b505050505050505092915050565b6118f36120d9565b6118fb6120c5565b6119036120c5565b61190b6120c5565b6119136120c5565b61191b6120c5565b6119236120d9565b61192b6120c5565b6000808e98508d97508c96508b95508a94508451865188518a518c51010101016040518059106119585750595b9080825280601f01601f1916602001820160405250935083925060009150600090505b8851811015611a2e57888181518110151561199257fe5b9060200101517f010000000000000000000000000000000000000000000000000000000000000090047f01000000000000000000000000000000000000000000000000000000000000000283838060010194508151811015156119f157fe5b9060200101907effffffffffffffffffffffffffffffffffffffffffffffffffffffffffffff1916908160001a905350808060010191505061197b565b600090505b8751811015611ae6578781815181101515611a4a57fe5b9060200101517f010000000000000000000000000000000000000000000000000000000000000090047f0100000000000000000000000000000000000000000000000000000000000000028383806001019450815181101515611aa957fe5b9060200101907effffffffffffffffffffffffffffffffffffffffffffffffffffffffffffff1916908160001a9053508080600101915050611a33565b600090505b8651811015611b9e578681815181101515611b0257fe5b9060200101517f010000000000000000000000000000000000000000000000000000000000000090047f0100000000000000000000000000000000000000000000000000000000000000028383806001019450815181101515611b6157fe5b9060200101907effffffffffffffffffffffffffffffffffffffffffffffffffffffffffffff1916908160001a9053508080600101915050611aeb565b600090505b8551811015611c56578581815181101515611bba57fe5b9060200101517f010000000000000000000000000000000000000000000000000000000000000090047f0100000000000000000000000000000000000000000000000000000000000000028383806001019450815181101515611c1957fe5b9060200101907effffffffffffffffffffffffffffffffffffffffffffffffffffffffffffff1916908160001a9053508080600101915050611ba3565b600090505b8451811015611d0e578481815181101515611c7257fe5b9060200101517f010000000000000000000000000000000000000000000000000000000000000090047f0100000000000000000000000000000000000000000000000000000000000000028383806001019450815181101515611cd157fe5b9060200101907effffffffffffffffffffffffffffffffffffffffffffffffffffffffffffff1916908160001a9053508080600101915050611c5b565b82995050505050505050505095945050505050565b6000611d2d6120c5565b60008060008693506000925060009150600090505b8351811015611ffe5760307f0100000000000000000000000000000000000000000000000000000000000000028482815181101515611d7d57fe5b9060200101517f010000000000000000000000000000000000000000000000000000000000000090047f0100000000000000000000000000000000000000000000000000000000000000027effffffffffffffffffffffffffffffffffffffffffffffffffffffffffffff191610158015611e95575060397f0100000000000000000000000000000000000000000000000000000000000000028482815181101515611e2557fe5b9060200101517f010000000000000000000000000000000000000000000000000000000000000090047f0100000000000000000000000000000000000000000000000000000000000000027effffffffffffffffffffffffffffffffffffffffffffffffffffffffffffff191611155b15611f46578115611eb8576000861415611eae57611ffe565b8580600190039650505b600a8302925060308482815181101515611ece57fe5b9060200101517f010000000000000000000000000000000000000000000000000000000000000090047f0100000000000000000000000000000000000000000000000000000000000000027f010000000000000000000000000000000000000000000000000000000000000090040383019250611ff1565b602e7f0100000000000000000000000000000000000000000000000000000000000000028482815181101515611f7857fe5b9060200101517f010000000000000000000000000000000000000000000000000000000000000090047f0100000000000000000000000000000000000000000000000000000000000000027effffffffffffffffffffffffffffffffffffffffffffffffffffffffffffff19161415611ff057600191505b5b8080600101915050611d42565b60008611156120105785600a0a830292505b8294505050505092915050565b80151561202957600080fd5b50565b60007fffffffffffffffffffffffffffffffffffffffffffffffffffffffffffffffff82141561205f576014915061206e565b601582141561206d57600091505b5b60018360ff1660058110151561208057fe5b018260158110151561208e57fe5b602091828204019190069054906101000a900460ff16905092915050565b60006120ba8383111561201d565b818303905092915050565b602060405190810160405280600081525090565b602060405190810160405280600081525090565b60a0604051908101604052806005905b60008152602001906001900390816120fd5790505090565b604080519081016040528060008152602001600081525090565b6102a060405190810160405280600760ff168152602001600260ff168152602001600260ff168152602001600160ff168152602001600560ff168152602001600360ff168152602001600560ff168152602001600360ff168152602001600260ff168152602001600260ff168152602001600360ff168152602001600460ff168152602001600260ff168152602001600560ff168152602001600160ff168152602001600160ff168152602001600660ff168152602001600460ff168152602001600160ff168152602001600560ff168152602001600360ff168152506001600060058110151561221c57fe5b0190601561222b929190612751565b506102a060405190810160405280600160ff168152602001600160ff168152602001600360ff168152602001600360ff168152602001600560ff168152602001600360ff168152602001600560ff168152602001600160ff168152602001600260ff168152602001600260ff168152602001600460ff168152602001600160ff168152602001600360ff168152602001600460ff168152602001600360ff168152602001600260ff168152602001600260ff168152602001600660ff168152602001600660ff168152602001600360ff168152602001600760ff1681525060018060058110151561231857fe5b01906015612327929190612751565b506102a060405190810160405280600460ff168152602001600260ff168152602001600760ff168152602001600360ff168152602001600260ff168152602001600660ff168152602001600160ff168152602001600460ff168152602001600360ff168152602001600160ff168152602001600560ff168152602001600160ff168152602001600160ff168152602001600460ff168152602001600460ff168152602001600160ff168152602001600560ff168152602001600260ff168152602001600260ff168152602001600160ff168152602001600160ff168152506001600260058110151561241557fe5b01906015612424929190612751565b506102a060405190810160405280600160ff168152602001600160ff168152602001600560ff168152602001600160ff168152602001600260ff168152602001600760ff168152602001600460ff168152602001600260ff168152602001600160ff168152602001600360ff168152602001600260ff168152602001600260ff168152602001600360ff168152602001600160ff168152602001600160ff168152602001600260ff168152602001600660ff168152602001600260ff168152602001600660ff168152602001600360ff168152602001600560ff168152506001600360058110151561251257fe5b01906015612521929190612751565b506102a060405190810160405280600160ff168152602001600460ff168152602001600160ff168152602001600160ff168152602001600260ff168152602001600460ff168152602001600160ff168152602001600360ff168152602001600660ff168152602001600260ff168152602001600760ff168152602001600260ff168152602001600460ff168152602001600160ff168152602001600360ff168152602001600160ff168152602001600360ff168152602001600660ff168152602001600160ff168152602001600260ff168152602001600560ff168152506001600460058110151561260f57fe5b0190601561261e929190612751565b50565b600a60066000600760009054906101000a900460ff1660ff16815260200190815260200160002081905550601460066000600760019054906101000a900460ff1660ff16815260200190815260200160002081905550602860066000600760029054906101000a900460ff1660ff16815260200190815260200160002081905550603260066000600760039054906101000a900460ff1660ff16815260200190815260200160002081905550604b60066000600760049054906101000a900460ff1660ff16815260200190815260200160002081905550609660066000600760059054906101000a900460ff1660ff1681526020019081526020016000208190555061012c60066000600760069054906101000a900460ff1660ff16815260200190815260200160002081905550565b826015601f016020900481019282156127da5791602002820160005b838211156127ab57835183826101000a81548160ff021916908360ff160217905550926020019260010160208160000104928301926001030261276d565b80156127d85782816101000a81549060ff02191690556001016020816000010492830192600103026127ab565b505b5090506127e791906127eb565b5090565b61281891905b8082111561281457600081816101000a81549060ff0219169055506001016127f1565b5090565b905600a165627a7a7230582089b2c759393475b0ed79c17155756809aeb521627c36a91b6d6e8a6c63298eba0029",
  "source": "pragma solidity ^0.4.0;\r\n\r\nimport '../../Libraries/SafeMath.sol';\r\nimport '../../Libraries/Utils.sol';\r\n\r\ncontract SlotsHelper is SafeMath, Utils {\r\n\r\n    bool public isSlotsHelper = true;\r\n\r\n    // Number of reels\r\n    uint constant NUMBER_OF_REELS = 5;\r\n\r\n    // Number of lines\r\n    uint constant NUMBER_OF_LINES = 5;\r\n\r\n    // Slot reels\r\n    uint8[21][5] reels;\r\n\r\n    // Paytables for different slot symbols\r\n    // (symbol => (multiplier => payout))\r\n    // For example, for 3xA -> (symbolA => (3 => payout))\r\n    mapping (uint => uint) paytable;\r\n\r\n    // Slot Symbols\r\n    uint8 symbolA = 1;\r\n\r\n    uint8 symbolB = 2;\r\n\r\n    uint8 symbolC = 3;\r\n\r\n    uint8 symbolD = 4;\r\n\r\n    uint8 symbolE = 5;\r\n\r\n    uint8 symbolF = 6;\r\n\r\n    uint8 symbolG = 7;\r\n\r\n    function SlotsHelper(){\r\n        initReels();\r\n        initPayTable();\r\n    }\r\n\r\n    // Initializes the paytable to verify reward calculations\r\n    function initPayTable() private {\r\n        // 3x Multiplier\r\n        paytable[symbolA] = 10;\r\n        paytable[symbolB] = 20;\r\n        paytable[symbolC] = 40;\r\n        paytable[symbolD] = 50;\r\n        paytable[symbolE] = 75;\r\n        paytable[symbolF] = 150;\r\n        paytable[symbolG] = 300;\r\n    }\r\n\r\n    function initReels() private {\r\n        reels[0] = [7, 2, 2, 1, 5, 3, 5, 3, 2, 2, 3, 4, 2, 5, 1, 1, 6, 4, 1, 5, 3];\r\n        reels[1] = [1, 1, 3, 3, 5, 3, 5, 1, 2, 2, 4, 1, 3, 4, 3, 2, 2, 6, 6, 3, 7];\r\n        reels[2] = [4, 2, 7, 3, 2, 6, 1, 4, 3, 1, 5, 1, 1, 4, 4, 1, 5, 2, 2, 1, 1];\r\n        reels[3] = [1, 1, 5, 1, 2, 7, 4, 2, 1, 3, 2, 2, 3, 1, 1, 2, 6, 2, 6, 3, 5];\r\n        reels[4] = [1, 4, 1, 1, 2, 4, 1, 3, 6, 2, 7, 2, 4, 1, 3, 1, 3, 6, 1, 2, 5];\r\n    }\r\n\r\n    // Converts a string reel to a uint array\r\n    // Example string reel = '0,1,2,3,4'\r\n    function convertReelToArray(string reel) returns (uint[5]){\r\n        uint[5] memory reelArray;\r\n        string memory temp = '';\r\n        uint8 iterator = 0;\r\n        // Example _result: [12,4,5,6,7]\r\n        for (uint8 i = 0; i < strLen(reel); i++) {\r\n            string memory char = getCharAt(reel, i);\r\n            if (!strCompare(char, ',')) {\r\n                temp = strConcat(temp, char);\r\n            } else {\r\n                reelArray[iterator++] = parseInt(temp);\r\n                temp = '';\r\n            }\r\n        }\r\n        reelArray[iterator] = parseInt(temp);\r\n        return reelArray;\r\n    }\r\n\r\n    function getTotalReward(uint betSize, uint[5] reelArray) returns (uint) {\r\n        uint totalReward = 0;\r\n        uint adjustedBetSize = safeDiv(betSize, 1 ether);\r\n        for (uint8 i = 0; i < adjustedBetSize; i++) { //300k gas\r\n            totalReward = safeAdd(totalReward, getLineRewardMultiplier(getLine(i, reelArray)));\r\n        }\r\n        totalReward = safeMul(totalReward, 1 ether);\r\n        return totalReward;\r\n    }\r\n\r\n    // Checks if a line is a winning line and returns the reward multiplier\r\n    //uint8[NUMBER_OF_REELS] line\r\n    function getLineRewardMultiplier(uint[5] line) internal returns (uint) {\r\n        uint8 repetitions = 0;\r\n        uint rewardMultiplier = 0;\r\n        for (uint8 i = 1; i <= NUMBER_OF_REELS; i++) {\r\n            if (line[i] == line[i - 1]) {\r\n                repetitions++;\r\n            }\r\n            else {\r\n                break;\r\n            }\r\n        }\r\n        if (repetitions >= 3) {\r\n            rewardMultiplier = safeMul(paytable[line[0]], safeSub(repetitions, 2));\r\n        }\r\n        return rewardMultiplier;\r\n    }\r\n\r\n    // Returns line for an index\r\n    // uint8[NUMBER_OF_REELS]\r\n    function getLine(uint8 lineIndex, uint[5] reelArray) internal returns (uint[5]) {\r\n        // Example [0,1,2,3,20]\r\n\r\n        // Top = [20,0,1,2,19]\r\n        // Middle = [0,1,2,3,20]\r\n        // Bottom = [1,2,3,4,0]\r\n        // Top Left - Bottom Center - Top Right = [20, 1, 3, 3, 19]\r\n        // Bottom Left - Top Center - Bottom Right = [1, 1, 1, 3, 0]\r\n        uint8 i = 0;\r\n        uint[5] memory line;\r\n        if (lineIndex == 0) {\r\n            // Middle Line\r\n            for (i = 0; i < NUMBER_OF_REELS; i++) {\r\n                line[i] = getSymbol(i, (int) (reelArray[i]));\r\n            }\r\n        }\r\n        else if (lineIndex == 1) {\r\n            // Top Line\r\n            for (i = 0; i < NUMBER_OF_REELS; i++) {\r\n                line[i] = getSymbol(i, (int) (reelArray[i] - 1));\r\n            }\r\n        }\r\n        else if (lineIndex == 2) {\r\n            // Bottom Line\r\n            for (i = 0; i < NUMBER_OF_REELS; i++) {\r\n                line[i] = getSymbol(i, (int) (reelArray[i] + 1));\r\n            }\r\n        }\r\n        else if (lineIndex == 3) {\r\n            // Top left to Bottom right to Top right\r\n            for (i = 0; i < NUMBER_OF_REELS; i++) {\r\n                if (i == 0 || i == 4)\r\n                line[i] = getSymbol(i, (int) (reelArray[i] - 1));\r\n                else if (i == 2)\r\n                line[i] = getSymbol(i, (int) (reelArray[i] + 1));\r\n                else\r\n                line[i] = getSymbol(i, (int) (reelArray[i]));\r\n            }\r\n        }\r\n        else if (lineIndex == 4) {\r\n            // Bottom left to Top right to Bottom right\r\n            for (i = 0; i < NUMBER_OF_REELS; i++) {\r\n                if (i == 0 || i == 4)\r\n                line[i] = getSymbol(i, (int) (reelArray[i] + 1));\r\n                else if (i == 2)\r\n                line[i] = getSymbol(i, (int) (reelArray[i] - 1));\r\n                else\r\n                line[i] = getSymbol(i, (int) (reelArray[i]));\r\n            }\r\n        }\r\n        else\r\n        throw;\r\n        return line;\r\n    }\r\n\r\n    // Returns the symbol for a reel at a position\r\n    function getSymbol(uint8 reel, int position) internal returns (uint8) {\r\n        if (position == - 1) position = 20;\r\n        else if (position == 21) position = 0;\r\n        // If position is 21, return 0\r\n\r\n        return reels[reel][(uint) (position)];\r\n    }\r\n\r\n}\r\n",
  "sourcePath": "C:\\truffle\\decent-bet\\contracts\\Casino\\Slots\\SlotsHelper.sol",
  "compiler": {
    "name": "solc",
    "version": "0.4.18+commit.9cf6e910.Emscripten.clang"
  },
  "schemaVersion": "1.0.1",
  "updatedAt": "2017-12-08T17:44:15.898Z"
}