{
  "contractName": "stringaskey",
  "abi": [
    {
      "constant": false,
      "inputs": [
        {
          "name": "key",
          "type": "string"
        }
      ],
      "name": "convert",
      "outputs": [
        {
          "name": "ret",
          "type": "bytes32"
        }
      ],
      "payable": false,
      "stateMutability": "nonpayable",
      "type": "function"
    }
  ],
  "bytecode": "0x6060604052341561000f57600080fd5b60f88061001d6000396000f300606060405260043610603f576000357c0100000000000000000000000000000000000000000000000000000000900463ffffffff168063962a64cd146044575b600080fd5b6092600480803590602001908201803590602001908080601f0160208091040260200160405190810160405280939291908181526020018383808284378201915050505050509190505060b0565b60405180826000191660001916815260200191505060405180910390f35b600060208251111560c057600080fd5b602082015190509190505600a165627a7a72305820b202b6104bd6b8fecb6f8664c5f883b55b1a2c6a6fd438bb6285ddb5b9a71e820029",
  "source": "pragma solidity ^0.4.0;\r\n\r\n\r\n//\r\n// In Solidity, a mapping is like a hashmap and works with `string` like this:\r\n//   mapping (string => uint) a;\r\n//\r\n// However it doesn't support accessors where string is a key:\r\n//   mapping (string => uint) public a;\r\n//\r\n// \"Internal compiler error: Accessors for mapping with dynamically-sized keys not yet implemented.\"\r\n//\r\n// An accessor returns uint when called as `a(string)`.\r\n//\r\n// As a short term solution, until it is implemented in Solidity, use the conversion code below. It also uses half as much storage space.\r\n//\r\n// See more utilities soon at https://github.com/axic/density\r\n//\r\n\r\nlibrary stringaskey {\r\n\r\n    function convert(string key) returns (bytes32 ret) {\r\n        if (bytes(key).length > 32) {\r\n            throw;\r\n        }\r\n\r\n        assembly {\r\n        ret := mload(add(key, 32))\r\n        }\r\n    }\r\n\r\n}",
  "sourcePath": "C:\\truffle\\decent-bet\\contracts\\Libraries\\stringaskey.sol",
  "compiler": {
    "name": "solc",
    "version": "0.4.18+commit.9cf6e910.Emscripten.clang"
  },
  "schemaVersion": "1.0.1",
  "updatedAt": "2017-12-08T17:43:11.051Z"
}